:020000040000FA
:100000000C9412010C943A010C943A010C943A01AC
:100010000C943A010C943A010C943A010C943A0174
:100020000C943A010C943A010C943A010C943A0164
:100030000C943A010C943A010C943A010C943A0154
:100040000C9401060C943A010C9471060C944B0626
:100050000C943A010C943A010C943A010C943A0134
:100060000C943A010C943A0120686F6D65643B2052
:1000700070617573696E67206265666F7265206E68
:10008000657874206D6F7665005B6379636C655D80
:10009000204D6F746F7220005B696E69745D20443F
:1000A0005256383832352074657374207769746815
:1000B000206D616E75616C204374726C2B432066F9
:1000C0007265657A652F686F6D652F726573756DE2
:1000D00065005B6374726C2D635D20526573756D92
:1000E000653A2072756E6E696E67206E6F726D6113
:1000F0006C6C79005B6374726C2D635D20486F6D6E
:10010000653A20636F6D6D616E64696E672072651C
:100110007475726E20746F207A65726F002F002FD5
:10012000005B6374726C2D635D20706F736974691A
:100130006F6E7320582F592F5A203D20005B637437
:10014000726C2D635D20467265657A653A20737422
:100150006F7070696E6720616C6C206D6F746F7268
:1001600073005B73746174655D20486F6D65643BFB
:100170002077616974696E67206265666F726520B9
:10018000726573756D65005B686F6D655D205A20E3
:10019000737465707320746F20686F6D653A20000A
:1001A0005B686F6D655D2059207374657073207492
:1001B0006F20686F6D653A20005B686F6D655D202C
:1001C0005820737465707320746F20686F6D653A82
:1001D00020000000000800020100000304070000E6
:1001E00000000000000000000000250028002B0097
:1001F00000000000240027002A0004040404040472
:1002000004040202020202020303030303030102C5
:100210000408102040800102040810200102040894
:100220001020B90611241FBECFEFD8E0DEBFCDBF2E
:1002300011E0A0E0B1E0EAE3F9E102C005900D921F
:10024000A233B107D9F722E0A2E3B1E001C01D92C9
:10025000AA35B207E1F711E0C2E1D1E004C021976D
:10026000FE010E94700BC131D107C9F70E946007DF
:100270000C949B0C0C94000090E0FC01E25FFD4F9D
:10028000249186509E4FFC018491882399F090E040
:10029000880F991FFC01E051FE4FA591B491FC011C
:1002A000EA51FE4F859194918FB7F894EC91E22B2F
:1002B000EC938FBF089590E0FC01EE52FE4F249125
:1002C000FC01E25FFD4F3491FC01E650FE4FE491EA
:1002D000EE23C9F0222339F0233001F1A8F42130B4
:1002E00019F1223029F1F0E0EE0FFF1FEA51FE4F25
:1002F000A591B4918FB7F894EC91611126C0309517
:100300003E233C938FBF08952730A9F02830C9F0D1
:10031000243049F7809180008F7D03C08091800058
:100320008F7780938000DFCF84B58F7784BDDBCF5C
:1003300084B58F7DFBCF8091B0008F778093B00024
:10034000D2CF8091B0008F7DF9CF3E2BDACF3FB76F
:10035000F8948091580190915901A0915A01B0915F
:100360005B0126B5A89B05C02F3F19F00196A11D82
:10037000B11D3FBFBA2FA92F982F8827BC01CD01EF
:10038000620F711D811D911D42E0660F771F881F4E
:10039000991F4A95D1F70895AF92BF92CF92DF92FD
:1003A000EF92FF920F931F93CF93DF936C017B012A
:1003B0008B01040F151FEB015E01AE18BF08C017BB
:1003C000D10759F06991D601ED91FC910190F0812E
:1003D000E02DC6010995892B79F7C501DF91CF91F1
:1003E0001F910F91FF90EF90DF90CF90BF90AF9053
:1003F0000895FC01538D448D252F30E0842F90E02B
:10040000821B930B541710F0CF960895019708950F
:10041000FC01918D828D981761F0A28DAE0FBF2FD8
:10042000B11D5D968C91928D9F5F9F73928F90E02E
:1004300008958FEF9FEF0895FC01918D828D98179D
:1004400031F0828DE80FF11D858D90E008958FEFDA
:100450009FEF0895FC01918D228D892F90E0805CA3
:100460009F4F821B91098F73992708958CE591E026
:100470000E942A0221E0892B09F420E0822F0895AE
:1004800080E090E0892B29F00E94360281110C94C3
:1004900000000895FC01A48DA80FB92FB11DA35A27
:1004A000BF4F2C91848D90E001968F739927848F94
:1004B000A689B7892C93A089B1898C9183708064B7
:1004C0008C93938D848D981306C00288F389E02D58
:1004D00080818F7D80830895EF92FF920F931F9309
:1004E000CF93DF93EC0181E0888F9B8D8C8D9813E7
:1004F0001AC0E889F989808185FF15C09FB7F894F3
:10050000EE89FF896083E889F9898081837080643E
:1005100080839FBF81E090E0DF91CF911F910F9189
:10052000FF90EF900895F62E0B8D10E00F5F1F4F98
:100530000F731127E02E8C8D8E110CC00FB607FCA7
:10054000FACFE889F989808185FFF5CFCE010E9435
:100550004A02F1CFEB8DEC0FFD2FF11DE35AFF4F57
:10056000F0829FB7F8940B8FEA89FB8980818062C3
:10057000CFCF0F931F93CF93DF938C01D0E0C0E0D8
:10058000F801EC0FFD1F6491662341F08CE591E0CA
:100590000E946C02892B11F02196F2CFCE01DF91DF
:1005A000CF911F910F910895CF93DF93EC01888D28
:1005B0008823B9F0AA89BB89E889F9898C9185FDDE
:1005C00003C0808186FD0DC00FB607FCF7CF8C916C
:1005D00085FFF2CF808185FFEDCFCE010E944A02D8
:1005E000E9CFDF91CF9108958F929F92AF92BF9202
:1005F000EF92FF920F931F93CF93DF93EC018C81C7
:10060000882309F1EA806E15F1F049015A01F62EAE
:100610008FEFE81659F0E881F9810084F185E02D2B
:100620009A018401462F6E2DCE010995EB82FA8244
:10063000E881F9810680F781E02D950184014E2D36
:100640006F2DCE010995DF91CF911F910F91FF90F2
:10065000EF90BF90AF909F908F900895DC0114961B
:100660007C911497772359F012967C9112977F3FD3
:1006700031F0ED91FC910484F585E02D0994089505
:10068000CF92DF92EF92FF920F931F93CF93DF935E
:10069000FC018281823009F446C041155105610593
:1006A0007105D9F1DB01CA0177FF07C088279927B7
:1006B000DC01841B950BA60BB70B82879387A4875D
:1006C000B58786879787A08BB18B80ED97E0A0E0F8
:1006D000B0E0828B938BA48BB58BC48DD58DD90163
:1006E000C8018053984FAF4FBF4F8C0F9D1FA11D66
:1006F000B11D868B978BA08FB18F77FD10C081E0E5
:10070000868F61E07901EF0186810E945B01A7017C
:10071000980161E0CE010E942E0381E005C08FEFB9
:10072000868F60E0EFCF80E0DF91CF911F910F9136
:10073000FF90EF90DF90CF9008950895FC018185A0
:10074000882341F08085882311F081E06827878124
:100750000C945B0108950895623019F460E00C94E4
:100760009E0361E0FCCFFC017281713059F020F0F2
:100770007230D9F080E008956130E1F70E94F40210
:1007800081E00895633031F0643031F0623091F7E8
:1007900060E0F4CF62E0F2CF1286138614861586ED
:1007A00016861786108A118AF3CF643019F7F0CFB6
:1007B000CF92DF92EF92FF92CF93DF93613009F0F7
:1007C00056C069017A01EC018A859B85AC85BD859F
:1007D000892B8A2B8B2B61F4A701960162E0CE0155
:1007E000DF91CF91FF90EF90DF90CF900C942E038C
:1007F0008E899F89A88DB98D281B390B4A0B5B0BFD
:10080000DA01C901B7FD33C061E08D810E945B014F
:100810008A8D9B8D8230910538F0880F991F880F43
:10082000991F05970197F1F760E08D810E945B01A8
:100830008A859B85AC85BD850197A109B1098A8709
:100840009B87AC87BD87892B8A2B8B2B29F28E89BE
:100850009F89A88DB98D4A895B896C897D89840FB0
:10086000951FA61FB71F8E8B9F8BA88FB98FDF9107
:10087000CF91FF90EF90DF90CF900895FC01019011
:100880000020E9F73197AF01481B590BBC018CE5FB
:1008900091E00C94CC018F929F92AF92BF920F93F4
:1008A0001F93CF93DF93CDB7DEB7A1970FB6F89420
:1008B000DEBF0FBECDBF19A2423008F44AE08E0160
:1008C0000F5D1F4F842E912CB12CA12CA5019401FA
:1008D0000E94170BE62FB901CA01EA30F4F4E05D7B
:1008E000D801EE938D01232B242B252B79F790E053
:1008F00080E0109719F0CD010E943E04A1960FB63A
:10090000F894DEBF0FBECDBFDF91CF911F910F9145
:10091000BF90AF909F908F900895E95CE1CFCF9307
:10092000DF930E94B902EC018EE291E00E943E0446
:100930008C0F9D1FDF91CF910895CF92DF92EF92A0
:10094000FF92CF93DF9397FF1BC06B017C016DE299
:100950008CE591E00E946C02EC0166277727CB01C1
:100960006C197D098E099F094AE00E944B048C0F87
:100970009D1FDF91CF91FF90EF90DF90CF90089572
:100980004AE0DF91CF91FF90EF90DF90CF900C94F1
:100990004B04CF93DF930E949D04EC018EE291E023
:1009A0000E943E048C0F9D1FDF91CF910895CF923E
:1009B000DF92EF92FF92CF93DF93EC016A017B010C
:1009C0008D810E943C018E810E943C0160E08D81FE
:1009D0000E945B0160E08E810E945B018985882313
:1009E00039F08F810E943C0168858F810E945B01F4
:1009F00061E0CE010E949E031A861B861C861D861E
:100A00001E861F86188A198ACE8ADF8AE88EF98E9A
:100A100081E08E8F9FEF9B831A828C8361E0CE01F1
:100A2000DF91CF91FF90EF90DF90CF900C949E03D9
:100A30000C94120C4F925F926F927F928F929F92C2
:100A4000AF92BF92CF92DF92EF92FF920F931F93DC
:100A5000CF93DF936C01762E49015A01062F10E0E7
:100A60009801225C3E4F7901F9018081E801CC0FA9
:100A7000DD1FCC0FDD1FFE01882309F441C0EB5BB5
:100A8000FE4F1082118212821382F90110820F5BD5
:100A90001E4FF80110820E948D0ACE5CDE4F21ECC1
:100AA00036EC4DE250E00E94E50A605C7D4B804FE1
:100AB0009F4F860E971EA81EB91E88829982AA8211
:100AC000BB8289E890E00E94B902672D70E090E057
:100AD00080E04AE00E944B0488E690E0DF91CF91ED
:100AE0001F910F91FF90EF90DF90CF90BF90AF904C
:100AF0009F908F907F906F905F904F900C948F0499
:100B0000EE5CFE4F80819181A281B3819401281B0C
:100B1000390B4A0B5B0BDA01C901B7FD46C00F5B0D
:100B20001E4FF8018081811151C00E948D0A23E07F
:100B300030E040E050E00E94E50A9B01AC012F5FED
:100B40003F4F4F4F5F4FA8ECB0E00E94040B2B01CA
:100B50003C010E948D0A22E030E040E050E00E941B
:100B6000E50A672B682B692B41F4709460945094CC
:100B70004094411C511C611C711C81E0F801808370
:100B8000CB5BDE4F88819981AA81BB81840D951D45
:100B9000A61DB71D88839983AA83BB839501840111
:100BA000B301A201C6010E944003DF91CF911F91C2
:100BB0000F91FF90EF90DF90CF90BF90AF909F90FC
:100BC0008F907F906F905F904F900895CB5BDE4F3A
:100BD000488159816A817B81411551056105710503
:100BE00021F370956095509541955F4F6F4F7F4F02
:100BF00095018401C6010E94400381E0F7018083D2
:100C0000D4CF1F920F920FB60F9211242F933F93C0
:100C10008F939F93AF93BF9380915401909155010F
:100C2000A0915601B09157013091530123E0230F59
:100C30002D3758F50196A11DB11D209353018093C6
:100C4000540190935501A0935601B09357018091A0
:100C5000580190915901A0915A01B0915B01019600
:100C6000A11DB11D8093580190935901A0935A0181
:100C7000B0935B01BF91AF919F918F913F912F9165
:100C80000F900FBE0F901F90189526E8230F029625
:100C9000A11DB11DD2CF1F920F920FB60F9211243A
:100CA0002F933F934F935F936F937F938F939F9374
:100CB000AF93BF93EF93FF938CE591E00E944A02BC
:100CC000FF91EF91BF91AF919F918F917F916F9124
:100CD0005F914F913F912F910F900FBE0F901F90FA
:100CE00018951F920F920FB60F9211242F938F9386
:100CF0009F93EF93FF93E0916C01F0916D018081E0
:100D0000E0917201F091730182FD1BC0908180918E
:100D100075018F5F8F7320917601821741F0E0910A
:100D20007501F0E0E45AFE4F958F80937501FF91B5
:100D3000EF919F918F912F910F900FBE0F901F9069
:100D400018958081F4CF9A01AB01DC0114966C9167
:100D50001497662359F012966C9112976F3F31F0F9
:100D6000ED91FC910284F385E02D099408950C9493
:100D7000A3060F931F93CF93DF93ECE5F1E013826B
:100D8000128248EE53E060E070E04483558366834E
:100D900077838EE091E09183808385EC90E0958766
:100DA000848784EC90E09787868780EC90E0918B35
:100DB000808B81EC90E0938B828B82EC90E0958B22
:100DC000848B86EC90E0978B868B118E128E138E1F
:100DD000148EE7E3F2E09FEF928393831482C0E2E4
:100DE000D1E0D183C08382E0858385E0868318E0EB
:100DF000178381E080878187128613861486158683
:100E000016861786108A118A428B538B648B758BDA
:100E1000168A178A108E118EA2E0B0E0B38FA28FCF
:100E200022E330E0358F248F868FE8E1F2E0928371
:100E300093831482D183C08303E0058306E0068395
:100E400017838087818712861386148615861686F7
:100E50001786108A118A428B538B648B758B168A86
:100E6000178A108E118EB38FA28F358F248F868FA5
:100E7000E9EFF1E0928393831482D183C08394E0FD
:100E8000958397E0968317838087818712861386E0
:100E90001486158616861786108A118A428B538B04
:100EA000648B758B168A178A108E118EB38FA28F62
:100EB000358F248F868FDF91CF911F910F910895E9
:100EC000789484B5826084BD84B5816084BD85B525
:100ED000826085BD85B5816085BD80916E00816031
:100EE00080936E00109281008091810082608093D7
:100EF00081008091810081608093810080918000D9
:100F00008160809380008091B10084608093B10003
:100F10008091B00081608093B00080917A008460FD
:100F200080937A0080917A00826080937A00809129
:100F30007A00816080937A0080917A008068809343
:100F40007A001092C100E0916C01F0916D0182E095
:100F50008083E0916801F09169011082E0916A015B
:100F6000F0916B0180E1808310927401E091700137
:100F7000F091710186E08083E0916E01F0916F0144
:100F8000808180618083E0916E01F0916F018081AA
:100F900088608083E0916E01F0916F0180818068AC
:100FA0008083E0916E01F0916F0180818F7D80835D
:100FB00088E990E00E948F040E94A7016B017C01E8
:100FC00008EE13E01093520200935102C4E6D0E001
:100FD000D0935402C0935302BC01A60187E392E070
:100FE0000E94D7041093330200933202D09335024B
:100FF000C0933402B701A60188E192E00E94D704B1
:101000001093140200931302D0931602C09315029A
:10101000B701A60189EF91E00E94D70480E4809394
:101020007C0080917A00806480937A0080917A00BD
:1010300086FDFCCF6091780070917900072E000C3E
:10104000880B990B611571058105910511F00E94BE
:10105000DC0A83E0282E312CC3E0D0E092E0E92EB8
:10106000F12CCC24C394D12C0E94A7014B015C012C
:101070008CE591E00E942A02181619060CF0C7C0F0
:101080008CE591E00E940802039791F7809144015A
:10109000813009F4AAC068F0823009F4AFC08091B1
:1010A000440190E00196B1010E94480B80934401F5
:1010B000DFCF8DE391E00E948F04109241021092E5
:1010C0004202109243021092440210924502109282
:1010D00046021092470210924802A501940162E074
:1010E00087E392E00E942E031092220210922302C4
:1010F00010922402109225021092260210922702CA
:101100001092280210922902A501940162E088E160
:1011100092E00E942E031092030210920402109299
:101120000502109206021092070210920802109215
:10113000090210920A02A501940162E089EF91E090
:101140000E942E031092430110924201109241011D
:101150001092400110923F0110923E0110923A010C
:1011600010923B0110923C0110923D011092360109
:101170001092370110923801109239011092320109
:10118000109233011092340110923501D092520125
:10119000C092510181E291E00E94B9026091450143
:1011A0007091460180914701909148010E949D04F1
:1011B0008FE191E00E94B9026091490170914A016A
:1011C00080914B0190914C010E949D048DE191E032
:1011D0000E94B90260914D0170914E0180914F01C2
:1011E000909150010E94C9045ACF84EF90E00E9470
:1011F0008F04F0925201E092510151CF82ED90E0C4
:101200000E948F04109252011092510148CFB501F3
:10121000A40187E392E00E94A306B501A40188E13E
:1012200092E00E94A306B501A40189EF91E00E941B
:10123000A3068091510190915201009779F0029795
:1012400079F180E090E0892B09F40ECF0E943602FC
:10125000882309F409CF0E94000006CF809139024B
:10126000811107C0A501940160E087E392E00E942C
:101270001A0580911A02811107C0A501940161E04D
:1012800088E192E00E941A058091FB018111D9CF7B
:10129000A501940162E089EF91E00E941A05D1CF87
:1012A00080913902811137C040904501509046012C
:1012B0006090470170904801411451046104710429
:1012C00051F189EB91E00E94B90266277727CB01A3
:1012D00064197509860997090E94C904409145015E
:1012E0005091460160914701709148017095609559
:1012F000509541955F4F6F4F7F4F9501840187E374
:1013000092E00E9440031092450110924601109213
:1013100047011092480180911A02811137C0409014
:10132000490150904A0160904B0170904C0141146A
:1013300051046104710451F180EA91E00E94B90204
:1013400066277727CB0164197509860997090E94DA
:10135000C9044091490150914A0160914B0170913B
:101360004C0170956095509541955F4F6F4F7F4F41
:101370009501840188E192E00E94400310924901A6
:1013800010924A0110924B0110924C018091FB0186
:10139000811137C040904D0150904E0160904F0137
:1013A00070905001411451046104710451F187E8B7
:1013B00091E00E94B90266277727CB01641975096D
:1013C000860997090E94C90440914D0150914E0130
:1013D00060914F01709150017095609550954195C5
:1013E0005F4F6F4F7F4F9501840189EF91E00E941D
:1013F000400310924D0110924E0110924F01109235
:10140000500180913902811108C080911A02811126
:1014100004C081E09091FB01911180E04091450171
:10142000509146016091470170914801452B462B30
:10143000472B09F006CF4091490150914A01609134
:101440004B0170914C01452B462B472B09F0F9CEEF
:1014500040914D0150914E0160914F0170915001AA
:10146000452B462B472B09F0ECCE882309F4E9CE17
:10147000D0935201C093510182E691E00E948F0403
:10148000E0CE8F929F92AF92BF92CF92DF92EF9277
:10149000FF92CF93DF93EC01688179818A819B81F0
:1014A000611571058105910521F464E279ED8BE503
:1014B00097E02DE133EF41E050E00E94E50A490159
:1014C0005A019B01AC01A7EAB1E40E94040B6B0135
:1014D0007C01ACEEB4EFA50194010E94120BC60E84
:1014E000D71EE81EF91EF7FE06C081E0C81AD10813
:1014F000E10880E8F80AC882D982EA82FB82C70143
:10150000B6019F77DF91CF91FF90EF90DF90CF9062
:10151000BF90AF909F908F9008958F929F92AF92BF
:10152000BF92CF92DF92EF92FF9260910001709193
:1015300001018091020190910301611571058105FE
:10154000910521F464E279ED8BE597E02DE133EF2D
:1015500041E050E00E94E50A49015A019B01AC01BB
:10156000A7EAB1E40E94040B6B017C01ACEEB4EF7E
:10157000A50194010E94120BC60ED71EE81EF91E8B
:10158000F7FE06C081E0C81AD108E10880E8F80A31
:10159000C0920001D0920101E0920201F092030199
:1015A000C701B6019F77FF90EF90DF90CF90BF907B
:1015B000AF909F908F900895609300017093010108
:1015C00080930201909303010895052E97FB1EF46A
:1015D00000940E94FC0A57FD07D00E94170B07FCDD
:1015E00003D04EF40C94FC0A50954095309521950B
:1015F0003F4F4F4F5F4F089590958095709561953F
:101600007F4F8F4F9F4F08950E94390BA59F900DDC
:10161000B49F900DA49F800D911D11240895B7FFD4
:101620000C94040B0E94040B821B930B0895A1E2FF
:101630001A2EAA1BBB1BFD010DC0AA1FBB1FEE1F4C
:10164000FF1FA217B307E407F50720F0A21BB30B97
:10165000E40BF50B661F771F881F991F1A9469F713
:1016600060957095809590959B01AC01BD01CF016F
:101670000895A29FB001B39FC001A39F700D811D6B
:101680001124911DB29F700D811D1124911D08958B
:1016900097FB072E16F4009407D077FD09D00E941F
:1016A0005C0B07FC05D03EF4909581959F4F089503
:1016B000709561957F4F0895AA1BBB1B51E107C030
:1016C000AA1FBB1FA617B70710F0A61BB70B881FD2
:1016D000991F5A95A9F780959095BC01CD01089561
:1016E000EE0FFF1F0590F491E02D09940F931F93C7
:1016F000CF93DF938230910510F482E090E0E09187
:101700005802F091590230E020E0B0E0A0E03097BC
:1017100099F42115310509F44AC0281B390B2430EE
:101720003105D8F58A819B816115710589F1FB012D
:1017300093838283FE0111C0408151810281138114
:1017400048175907E0F04817590799F4109761F0C6
:1017500012960C93129713961C933296CF01DF9139
:10176000CF911F910F910895009358021093590241
:10177000F4CF2115310551F04217530738F0A90174
:10178000DB019A01BD01DF01F801C1CFEF01F9CF03
:101790009093590280935802CDCFFE01E20FF31FC0
:1017A000819391932250310939832883D7CF209197
:1017B000560230915702232B41F4209106013091BB
:1017C0000701309357022093560220910401309173
:1017D00005012115310541F42DB73EB740910801AF
:1017E00050910901241B350BE0915602F0915702EC
:1017F000E217F307A0F42E1B3F0B2817390778F0E8
:10180000AC014E5F5F4F2417350748F04E0F5F1F46
:101810005093570240935602819391939FCFF0E0EB
:10182000E0E09CCFCF93DF930097E9F0FC01329783
:1018300013821282A0915802B0915902ED0130E05A
:1018400020E01097A1F420813181820F931F209115
:101850005602309157022817390709F061C0F093FA
:101860005702E0935602DF91CF910895EA01CE1717
:10187000DF07E8F54A815B819E0141155105B1F70B
:10188000E901FB83EA8349915991C40FD51FEC17F5
:10189000FD0761F4808191810296840F951FE90113
:1018A00099838883828193819B838A83F0E0E0E03F
:1018B00012968D919C9113970097B9F52D913C91BB
:1018C0001197CD010296820F931F209156023091FD
:1018D00057022817390739F6309751F510925902F7
:1018E00010925802B0935702A0935602BCCFD383F4
:1018F000C28340815181840F951FC817D90761F4B5
:101900004E5F5F4F88819981480F591F51834083F3
:101910008A819B81938382832115310509F0B0CFA1
:10192000F0935902E09358029ECFFD01DC01C0CF35
:1019300013821282D7CFF894FFCF0100000000007D
:101940005A028000000000006C02CC01F901D402B0
:101950002A0208021C02000000009D031805B706B9
:0C196000AC03AB03D803B3030D0A000076
:107E0000112484B714BE81FFF0D085E080938100F7
:107E100082E08093C00088E18093C10086E0809377
:107E2000C20080E18093C4008EE0C9D0259A86E02C
:107E300020E33CEF91E0309385002093840096BBD3
:107E4000B09BFECF1D9AA8958150A9F7CC24DD24C4
:107E500088248394B5E0AB2EA1E19A2EF3E0BF2EE7
:107E6000A2D0813461F49FD0082FAFD0023811F036
:107E7000013811F484E001C083E08DD089C08234E0
:107E800011F484E103C0853419F485E0A6D080C0E4
:107E9000853579F488D0E82EFF2485D0082F10E0AE
:107EA000102F00270E291F29000F111F8ED06801E7
:107EB0006FC0863521F484E090D080E0DECF843638
:107EC00009F040C070D06FD0082F6DD080E0C81688
:107ED00080E7D80618F4F601B7BEE895C0E0D1E017
:107EE00062D089930C17E1F7F0E0CF16F0E7DF06D8
:107EF00018F0F601B7BEE89568D007B600FCFDCFD4
:107F0000A601A0E0B1E02C9130E011968C91119780
:107F100090E0982F8827822B932B1296FA010C0160
:107F200087BEE89511244E5F5F4FF1E0A038BF0790
:107F300051F7F601A7BEE89507B600FCFDCF97BE46
:107F4000E89526C08437B1F42ED02DD0F82E2BD052
:107F50003CD0F601EF2C8F010F5F1F4F84911BD097
:107F6000EA94F801C1F70894C11CD11CFA94CF0C13
:107F7000D11C0EC0853739F428D08EE10CD085E9AC
:107F80000AD08FE07ACF813511F488E018D01DD067
:107F900080E101D065CF982F8091C00085FFFCCF94
:107FA0009093C60008958091C00087FFFCCF809118
:107FB000C00084FD01C0A8958091C6000895E0E648
:107FC000F0E098E1908380830895EDDF803219F02E
:107FD00088E0F5DFFFCF84E1DECF1F93182FE3DFCA
:107FE0001150E9F7F2DF1F91089580E0E8DFEE27F6
:047FF000FF270994CA
:027FFE00040479
:00000001FF
