:020000040000FA
:100000000C940B030C9433030C9433030C943303C0
:100010000C9433030C9433030C9433030C94330388
:100020000C94F20C0C9433030C9433030C943303B0
:100030000C9433030C9433030C9433030C94330368
:100040000C94500C0C9433030C94C00C0C949A0C2C
:100050000C9433030C9433030C9433030C94330348
:100060000C9433030C943303200020005B5475720E
:100070006E7461626C65546573745D207461626C4A
:100080006520005B544D43323230395D2073746516
:100090007070696E672C2072656D61696E696E673C
:1000A0003D005B544D43323230395D20656E7465DE
:1000B0007220737461746520004F4646004F4E00F5
:1000C0005B544D43323230395D20656E61626C6540
:1000D0003D005B544D43323230395D20636F6E66B4
:1000E000696775726520656E61626C652070696E06
:1000F0003D005B544D43323230395D2062656769A3
:100100006E202D3E2049646C65005B5475726E74E0
:1001100061626C65544D435D20626567696E0020C5
:100120007265616479005B5475726E7461626C65AE
:10013000546573745D207475726E7461626C6520B1
:10014000002C204D6F746F72207374657073207073
:100150006572207475726E7461626C652064656787
:100160007265653D002C204D6F746F72207374654D
:10017000707320706572206D6F746F722064656794
:100180007265653D002C204D6F746F7220746F2076
:100190007475726E7461626C65206765617252611C
:1001A00074696F3D005B5475726E7461626C655466
:1001B0006573745D206D6F746F72537465707350E6
:1001C00065725265763D005B5475726E7461626C47
:1001D00065546573745D207374617274696E670031
:1001E00018002860095802B004580258025802103A
:1001F0002D00000006002628236810F4012C06F4C8
:10020000012602806E00CB07050026E02070100E4C
:10021000022A060E020E0200410000001400268091
:100220001180113002900630023002006E00000092
:100230001E002638081C040E022A060E020E0200BA
:10024000320000001D0026220B220BEE026608EE93
:1002500002EE02806E0000001A0026F603BC0508BC
:1002600002BC050802D401004B0000001C00261F40
:10027000015D033E023E021F015D03A06E0000000F
:1002800004002604010C0304011C0704010C0300F4
:100290006E0000000C0025800DC006B0011005B0F6
:1002A00001B0010082000000080026002380113008
:1002B00002900630023002006E00CB075B5475726C
:1002C0006E7461626C65546573745D20495220637D
:1002D0006F6D6D616E64207265636569766564201B
:1002E0002D3E20686F6D696E672C207468656E20E6
:1002F00077696C6C20706175736520666F7220324F
:100300003073005B5475726E7461626C65544D435A
:100310005D206D6F766520646F6E652C206375724D
:1003200072656E7453746570733D005B5475726EC4
:100330007461626C65544D435D206D6F746F722003
:100340006572726F7220647572696E67206D6F7668
:1003500065005B5475726E7461626C65544D435DEB
:1003600020686F6D696E6720746F20302064656748
:100370002C2064656C746153746570733D005B542C
:1003800075726E7461626C65546573745D20323091
:100390007320706175736520636F6D706C65746533
:1003A0003B206E6F726D616C206D6F76656D656E52
:1003B0007420726573756D6564005B5475726E743C
:1003C00061626C65546573745D20686F6D65643B34
:1003D000203230732074696D657220737461727499
:1003E0006564006D6F7665546F416E676C65006D76
:1003F0006F7665546F416E676C650020637572722D
:10040000656E74416E676C654465672064757269DA
:100410006E6720686F6D696E673A20005B54757275
:100420006E7461626C65546573745D207461626C96
:1004300065200020686F6D696E6720636F6D6D6168
:100440006E642072656A6563746564005B547572DE
:100450006E7461626C65546573745D207461626C66
:10046000652000686F6D696E6720746F20302064AE
:1004700065670020686F6D696E6720746F2030209B
:10048000646567005B5475726E7461626C65546577
:1004900073745D207461626C6520002063757272F4
:1004A000656E74416E676C65446567206265666F52
:1004B000726520686F6D696E673A20005B547572D3
:1004C0006E7461626C65546573745D207461626CF6
:1004D0006520005B5475726E7461626C655465735F
:1004E000745D206D6F746F72206572726F7220641C
:1004F00065746563746564206F6E207461626C65F9
:10050000200000000000240027002A000000000056
:10051000250028002B000000000800020100000355
:10052000040700000000000000005B5475726E7448
:1005300061626C65544D435D204368616E67652060
:100540006D6F746F722062792000524556004657D5
:1005500044005B544D43323230395D206469723D52
:100560000020696E74657276616C287573293D0090
:100570005B544D43323230395D2073746172744D77
:100580006F76652073746570733D005B544D433224
:100590003230395D2073746172744D6F76652072EC
:1005A000656A65637465643A204572726F72207380
:1005B0007461746500207461626C654465675065A0
:1005C00072537465703D005B5475726E7461626C39
:1005D00065544D435D2073746172744D6F76652070
:1005E00064656C746153746570733D0004040404A5
:1005F00004040404020202020202030303030303CD
:1006000001020408102040800102040810200102A9
:1006100004081020E20D11241FBECFEFD8E0DEBF8A
:10062000CDBF24E0A4E8B1E001C01D92AD31B20716
:10063000E1F711E0A0E0B1E0EAE2F2E402C00590E7
:100640000D92A438B107D9F713E0CBE0D3E004C092
:100650002197FE010E94E81FCA30D107C9F70E9406
:1006600016100C9413210C94000020914403309137
:1006700045032817390728F480914203816080934D
:100680004203089590E0FC01EA5EFA4F2491FC01D8
:10069000E050FA4F3491FC01E451FA4FE491EE231B
:1006A000C9F0222339F0233001F1A8F4213019F1E7
:1006B000223029F1F0E0EE0FFF1FE45FFA4FA59121
:1006C000B4918FB7F894EC91611126C030953E2318
:1006D0003C938FBF08952730A9F02830C9F024300B
:1006E00049F7809180008F7D03C0809180008F77D3
:1006F00080938000DFCF84B58F7784BDDBCF84B556
:100700008F7DFBCF8091B0008F778093B000D2CFE8
:100710008091B0008F7DF9CF3E2BDACFCF93DF935E
:1007200090E0FC01E050FA4F249184519A4FFC0173
:1007300084918823D1F090E0880F991FFC01EE5F2F
:10074000FA4FA591B491FC01E45FFA4FC591D491A1
:1007500061110EC09FB7F8948C91E22FE0958E2323
:100760008C932881E223E8839FBFDF91CF91089586
:100770008FB7F894EC91E22BEC938FBFF6CF3FB795
:10078000F8948091970190919801A0919901B0916E
:100790009A0126B5A89B05C02F3F19F00196A11D0F
:1007A000B11D3FBFBA2FA92F982F8827BC01CD01BB
:1007B000620F711D811D911D42E0660F771F881F1A
:1007C000991F4A95D1F70895AF92BF92CF92DF92C9
:1007D000EF92FF920F931F93CF93DF936C017B01F6
:1007E0008B01040F151FEB015E01AE18BF08C01787
:1007F000D10759F06991D601ED91FC910190F081FA
:10080000E02DC6010995892B79F7C501DF91CF91BC
:100810001F910F91FF90EF90DF90CF90BF90AF901E
:100820000895FC01538D448D252F30E0842F90E0F6
:10083000821B930B541710F0CF96089501970895DB
:10084000FC01918D828D981761F0A28DAE0FBF2FA4
:10085000B11D5D968C91928D9F5F9F73928F90E0FA
:1008600008958FEF9FEF0895FC01918D828D981769
:1008700031F0828DE80FF11D858D90E008958FEFA6
:100880009FEF0895FC01918D228D892F90E0805C6F
:100890009F4F821B91098F739927089581EA91E0F8
:1008A0000E94420421E0892B09F420E0822F089560
:1008B00080E090E0892B29F00E944E0481110C9475
:1008C00000000895FC01A48DA80FB92FB11DA35AF3
:1008D000BF4F2C91848D90E001968F739927848F60
:1008E000A689B7892C93A089B1898C918370806483
:1008F0008C93938D848D981306C00288F389E02D24
:1009000080818F7D80830895EF92FF920F931F93D4
:10091000CF93DF93EC0181E0888F9B8D8C8D9813B2
:100920001AC0E889F989808185FF15C09FB7F894BE
:10093000EE89FF896083E889F9898081837080640A
:1009400080839FBF81E090E0DF91CF911F910F9155
:10095000FF90EF900895F62E0B8D10E00F5F1F4F64
:100960000F731127E02E8C8D8E110CC00FB607FC73
:10097000FACFE889F989808185FFF5CFCE010E9401
:100980006204F1CFEB8DEC0FFD2FF11DE35AFF4F09
:10099000F0829FB7F8940B8FEA89FB89808180628F
:1009A000CFCF0F931F93CF93DF938C01D0E0C0E0A4
:1009B000F801EC0FFD1F6491662341F081EA91E09C
:1009C0000E948404892B11F02196F2CFCE01DF9191
:1009D000CF911F910F910895CF93DF93EC01888DF4
:1009E0008823B9F0AA89BB89E889F9898C9185FDAA
:1009F00003C0808186FD0DC00FB607FCF7CF8C9138
:100A000085FFF2CF808185FFEDCFCE010E94620489
:100A1000E9CFDF91CF910895CF92DF92EF92FF92CD
:100A20000F931F93CF93DF93EC01C8ACD9ACEAAC22
:100A3000FBACFC01E05CFF4F8081882311F18E85C7
:100A40009F85A889B989181619061A061B06CCF4C1
:100A50000A851B852C853D85BC01CD01601B710B72
:100A6000820B930B0CAD1DAD2EAD3FAD37FF22C0F9
:100A70002FEF3FEFA9010E941E1EC60ED71EE81ED3
:100A8000F91EC701B6010E94011D2CA93DA94EA95E
:100A90005FA90E94D71E20E030E044EB53E40E949F
:100AA000601DDF91CF911F910F91FF90EF90DF902C
:100AB000CF90089521E030E040E050E0DCCF089591
:100AC00008959A01AB01DC0114966C91149766238A
:100AD00059F012966C9112976F3F31F0ED91FC91A5
:100AE0000284F385E02D0994089522E3FC012E9FF2
:100AF000C0012F9F900D1124480F591F76956795BF
:100B000076956795CB01880F991F860F971F8417DD
:100B1000950750F485E0869F9001879F300D112442
:100B200081E02417350708F480E008954CEE5FEF6C
:100B30000C9475054F925F926F927F929F92AF9245
:100B4000BF92CF92DF92EF92FF920F931F93CF93BA
:100B5000DF93182F5A01922EC62FD0E0C05BDD4FD5
:100B6000412C512C32014394C12CD12C76011123FC
:100B700001F19920B1F08881B50190E00E949605BD
:100B8000002379F1CC0CDD1CEE1CFF1C882311F036
:100B90006894C0F8440C551C661C771C11502296B2
:100BA000E6CF898144E150E0B50190E00E947505EF
:100BB000E7CFC0922003D0922103E0922203F0926B
:100BC0002303DF91CF911F910F91FF90EF90DF9062
:100BD000CF90BF90AF909F907F906F905F904F901D
:100BE00008958823B9F2C428D528E628F728D2CF5B
:100BF000CF93DF93EC01FC01339665917491809162
:100C0000510290E00E949605882369F0FE01359616
:100C1000659174918091520244E150E090E0DF913F
:100C2000CF910C94750580E0DF91CF91089522E378
:100C3000289FA001299F500D1124769567957695E0
:100C400067959B01220F331F260F371F421753074B
:100C500050F085E0869F9001879F300D112481E040
:100C60002417350708F480E00895BF92CF92DF92F1
:100C7000EF92FF920F931F93CF93DF931091A001F8
:100C800080914303B12C1817A0F5812F8170B82EE5
:100C900000919F0101111EC0E12FF0E0ED5BFD4FBF
:100CA000E584F12CCCEEDFEF882311F0C4E1D0E035
:100CB000C0909D01D0909E01CC0DDD1DBE01C701ED
:100CC0000E941706882301F181E090E090939C0137
:100CD00080939B010F5F00939F0180919B019091F6
:100CE0009C010817190628F010929F011F5F1093AE
:100CF000A0018B2DDF91CF911F910F91FF90EF906D
:100D0000DF90CF90BF900895CC0DDD1DBE01C701CF
:100D10000E941706882319F082E090E0D7CFB60131
:100D20006C0F7D1FC7010E941706882319F083E00E
:100D300090E0CCCFBB24BA94DCCF8F929F92AF923D
:100D4000BF92EF92FF920F931F93CF93DF93EC012B
:100D50008C81882309F1EA806E15F1F049015A016E
:100D6000F62E8FEFE81659F0E881F9810084F185BD
:100D7000E02D9A018401462F6E2DCE010995EB825C
:100D8000FA82E881F9810680F781E02D95018401DE
:100D90004E2D6F2DCE010995DF91CF911F910F91AF
:100DA000FF90EF90BF90AF909F908F900895FC01BF
:100DB0007281713059F020F07230D9F080E00895DE
:100DC0006130E1F70E949D0681E00895633031F0C3
:100DD000643031F0623091F760E0F4CF62E0F2CF3E
:100DE000128613861486158616861786108A118A2F
:100DF000F3CF643019F7F0CFDC0114967C9114978F
:100E0000772359F012967C9112977F3F31F0ED9144
:100E1000FC910484F585E02D099408959C0180914E
:100E20001401882321F081E0232B09F080E008954C
:100E30000F931F93CF93DF93FB01A081B181129693
:100E40002C91222331F080E0DF91CF911F910F91FF
:100E50000895EC01A881B98104811581268137812B
:100E6000012B022B032B49F40D911D912D913C91E7
:100E7000139704831583268337838D919D910D905D
:100E8000BC91A02D0481158126813781801B910B97
:100E9000A20BB30B8E3E9240A105B105A0F21482C5
:100EA0001582168217825383428381E0CDCF8091D1
:100EB0005103811102C02D98089560E00C94420303
:100EC000882349F080915103811102C02D9A089521
:100ED00061E00C9442030C9457078F929F92AF925B
:100EE000BF92CF92DF92EF92FF921F93CF93DF9347
:100EF000EC010E94BF036B017C014B015C0188E0A7
:100F0000880E911CA11CB11C10E0F89461E0809146
:100F10003E020E944203809141029091420282303F
:100F2000910538F0880F991F880F991F0597019731
:100F3000F1F760E080913E020E9442037894111123
:100F400003C081E00E94600780913F0290914002BF
:100F5000C80ED91EE11CF11CF8940E94BF039B012E
:100F6000281939092C173D0778F00E945707789403
:100F7000DF91CF911F91FF90EF90DF90CF90BF90C6
:100F8000AF909F908F90089511E06C157D058E05B0
:100F90009F0518F3BACFCF92DF92EF92FF928AE1CA
:100FA00090E09093400280933F0285E090E0909320
:100FB00042028093410261E080913E020E948E03D2
:100FC00080E093E20E946D070E94BF036B017C01E9
:100FD00024E0C21AD108E108F1080E94BF036C198D
:100FE0007D098E099F09603C784081059105A8F331
:100FF00080E392E0FF90EF90DF90CF900C946D072C
:10100000FC0101900020E9F73197AF01481B590B13
:10101000BC0181EA91E00C94E4038CE691E00C942D
:101020000008CF93DF930E94D104EC010E940D08C9
:101030008C0F9D1FDF91CF9108951F93CF93DF9366
:10104000EC01162F39853323D9F0388561E061270B
:10105000311101C0612F8F810E94420388A1882332
:1010600079F080EC90E00E94D10489EB90E01123AC
:1010700011F08DEB90E0DF91CF911F910C9411084E
:10108000DF91CF911F9108958F929F92AF92BF925F
:101090000F931F93CF93DF93CDB7DEB7A1970FB612
:1010A000F894DEBF0FBECDBF19A2423008F44AE06B
:1010B0008E010F5D1F4F842E912CB12CA12CA50108
:1010C00094010E942E1EE62FB901CA01EA30F4F401
:1010D000E05DD801EE938D01232B242B252B79F78E
:1010E00090E080E0109719F0CD010E940008A196D1
:1010F0000FB6F894DEBF0FBECDBFDF91CF911F9129
:101100000F91BF90AF909F908F900895E95CE1CFD1
:10111000BC0190E080E04AE00C944408CF92DF925A
:10112000EF92FF92CF93DF9397FF1BC06B017C017F
:101130006DE281EA91E00E948404EC016627772742
:10114000CB016C197D098E099F094AE00E94440871
:101150008C0F9D1FDF91CF91FF90EF90DF90CF908C
:1011600008954AE0DF91CF91FF90EF90DF90CF900C
:101170000C944408CF93DF930E948E08EC010E94E8
:101180000D088C0F9D1FDF91CF9108958F929F9234
:10119000AF92BF92CF92DF92EF92FF92CF93DF9305
:1011A000613009F083C069017A01EC018A859B8571
:1011B000AC85BD85892B8A2B8B2B81F4A7019601E9
:1011C00062E0CE01DF91CF91FF90EF90DF90CF9062
:1011D000BF90AF909F908F900C94FC068E899F8952
:1011E000A88DB98D281B390B4A0B5B0BDA01C9019D
:1011F000B7FD5CC061E08D810E9442038A8D9B8DAA
:101200008230910538F0880F991F880F991F059734
:101210000197F1F760E08D810E9442038A849B84EC
:10122000AC84BD8431E0831A9108A108B1088A8694
:101230009B86AC86BD8688A18823F9F029A13AA1B6
:1012400021153105D1F050E040E0C501B4010E9404
:10125000C91F672B682B692B31F045E08416910478
:10126000A104B10454F483E890E00E94D1046A859B
:101270007B858C859D850E94BA088A859B85AC8577
:10128000BD85892B8A2B8B2B09F498CF8E899F895A
:10129000A88DB98D4A895B896C897D89840F951FDA
:1012A000A61FB71F8E8B9F8BA88FB98FDF91CF9111
:1012B000FF90EF90DF90CF90BF90AF909F908F9076
:1012C00008950F931F93CF938C01C62F60E0C23017
:1012D00009F061E0C8010E941D08F80180A188237F
:1012E00079F082EA90E00E94D1046C2F70E090E0E7
:1012F00080E00E948E08CF911F910F910C940D08F1
:10130000CF911F910F9108954F925F926F927F92AC
:101310008F929F92AF92BF92CF92DF92EF92FF9205
:101320000F931F93CF936B017C01742EAC019B0133
:101330000E94B01F882399F08FE691E0CF911F9112
:101340000F91FF90EF90DF90CF90BF90AF909F9064
:101350008F907F906F905F904F900C9400084601A3
:101360005701E894B7F82FEF3FEF4FE75FE7C5016C
:10137000B4010E94B01F81110DC02FEF3FEF4FE766
:101380005FE7C501B4010E94FA1C18161CF483E73C
:1013900091E0D4CF2FEF3FEF4FE75FE4C701B601F5
:1013A0000E94781F18161CF487E791E0C7CF2FEF33
:1013B0003FEF4FE75FECC701B6010E94FA1C87FDC3
:1013C000F3CF20E030E0A901C701B6010E94FA1C6A
:1013D00010E000E087FF0AC06DE281EA91E00E9420
:1013E00084048C01F7FAF094F7F8F094C0E060E020
:1013F00070E080E09FE37C1641F020E030E040E2C6
:1014000051E40E94D71ECF5FF6CFA70196010E943C
:101410006B1E2B013C010E94491F4B015C014AE0FD
:101420000E9444087C01E00EF11ECC23A9F1C50105
:10143000B4010E94FF1C9B01AC01C301B2010E94D8
:101440006A1E4B015C016EE281EA91E00E94840415
:10145000E80EF91EC15000F120E030E040E251E416
:10146000C501B4010E94601D2B013C010E94491F6F
:101470004B01CB010E948808E80EF91EB40190E0F0
:1014800080E00E94FF1C9B01AC01C301B2010E94DD
:101490006A1E4B015C01DECFC701CF911F910F91F6
:1014A000FF90EF90DF90CF90BF90AF909F908F9084
:1014B0007F906F905F904F900895CF93DF930E943D
:1014C0008409EC010E940D088C0F9D1FDF91CF91C4
:1014D0000895AF92BF92CF92DF92EF92FF920F9357
:1014E000CF93DF93EC015B0169017A010E940E0743
:1014F000882371F18CE690E00E94D104CE010E9415
:1015000088088AE690E00E94D104C5010E94D104B7
:10151000002399F088E690E00E94D10442E050E078
:10152000C701B601DF91CF910F91FF90EF90DF904F
:10153000CF90BF90AF900C945D0ADF91CF910F9147
:10154000FF90EF90DF90CF90BF90AF900C940D087C
:10155000DF91CF910F91FF90EF90DF90CF90BF90F0
:10156000AF9008954F925F926F927F928F929F9269
:10157000AF92BF92CF92DF92EF92FF920F931F93A1
:10158000CF93DF93EC016A017B012801390120E050
:1015900030E040E05EE36CA97DA98EA99FA90E947E
:1015A000601D4B015C0120E030E0A9010E94FA1CA3
:1015B000181694F080E0DF91CF911F910F91FF906A
:1015C000EF90DF90CF90BF90AF909F908F907F90E3
:1015D0006F905F904F900895A501940160E074E2D0
:1015E00084E799E40E94D71E0E947D1F4B015C0195
:1015F00081149104A104B10421F4812C912C540193
:101600008394FE01EF5BFF4F80818823D1F087EC4C
:1016100095E00E94D104C701B6010E948E0885EBB7
:1016200095E00E94D1042CA93DA94EA95FA960E0D4
:1016300070E084EB93E40E94D71E46E050E00E94E5
:101640005D0A8A81823049F488A1882309F4B2CFE7
:101650008BE895E00E941108ADCFC114D104E104DC
:10166000F10409F45DC0D701C601F7FE07C0882761
:101670009927DC018C199D09AE09BF098A879B87D0
:10168000AC87BD878E879F87A88BB98B8A8A9B8AF8
:10169000AC8ABD8A8C8D9D8DA3019201280F391FC4
:1016A000411D511DDA01C901880D991DAA1DBB1DDF
:1016B0008E8B9F8BA88FB98F88A18823A9F080E794
:1016C00095E00E94D104C701B6010E948E0881E610
:1016D00095E00E94D1046A897B898C899D894AE0C2
:1016E0000E9444080E940D08F7FC23C081E08E8F01
:1016F00061E08E810E94420388A1882359F082E52F
:1017000095E00E94D1048E8D1816BCF08AE495E015
:101710000E941108A301920161E0CE010E94FC0623
:10172000CCAEDDAEEEAEFFAEC05CDF4F81E08883B5
:1017300042CF8FEF8E8F60E0DCCF8EE495E0E8CF74
:101740008F929F92AF92BF92CF92DF92EF92FF92D1
:101750000F931F93CF93DF93EC016A017B01480144
:1017600059018BA5882311F1AB0196016BA17CA1D6
:101770008DA19EA10E94781F181674F480E0DF915D
:10178000CF911F910F91FF90EF90DF90CF90BF907E
:10179000AF909F908F9008952FA138A549A55AA585
:1017A000C701B6010E94781F181644F320E030E00C
:1017B00044EB53E4C701B6010E94D71E2CA93DA9F2
:1017C0004EA95FA90E94601D0E947D1FC8ACD9ACC4
:1017D000EAACFBAC9B01AC012C193D094E095F0939
:1017E00069017A01FE01EF5BFF4F8081882371F070
:1017F0008AE295E00E94D104C701B6010E948E08DA
:101800008BE791E00E9400080E940D088A818111F7
:10181000B5CF81E0C114D104E104F10409F4AFCFE4
:1018200095018401B701A601CE010E94B20AA7CF9B
:10183000FF920F931F93CF93DF93CDB7DEB76497DB
:101840000FB6F894DEBF0FBECDBF162FF42E44E1C5
:1018500050E0BC01CE0101960E94F11C0889802F46
:1018600080714885598504FD02C04A855B85001F4B
:101870000027001F21E0811101C020E06F2D812F82
:101880000E949A0564960FB6F894DEBF0FBECDBFD6
:10189000DF91CF911F910F91FF9008950C948A20B2
:1018A0001F920F920FB60F9211242F933F938F9395
:1018B0009F93AF93BF938091930190919401A091D6
:1018C0009501B09196013091920123E0230F2D37BD
:1018D00058F50196A11DB11D2093920180939301AB
:1018E00090939401A0939501B093960180919701F4
:1018F00090919801A0919901B0919A010196A11D32
:10190000B11D8093970190939801A0939901B09392
:101910009A01BF91AF919F918F913F912F910F901D
:101920000FBE0F901F90189526E8230F0296A11D59
:10193000B11DD2CF1F920F920FB60F9211242F9389
:101940003F934F935F936F937F938F939F93AF9347
:10195000BF93EF93FF9381EA91E00E946204FF91AD
:10196000EF91BF91AF919F918F917F916F915F9117
:101970004F913F912F910F900FBE0F901F90189590
:101980001F920F920FB60F9211242F938F939F9354
:10199000EF93FF93E091B101F091B2018081E0916A
:1019A000B701F091B80182FD1BC090818091BA010E
:1019B0008F5F8F732091BB01821741F0E091BA01D4
:1019C000F0E0EF55FE4F958F8093BA01FF91EF91B4
:1019D0009F918F912F910F900FBE0F901F90189590
:1019E0008081F4CF1F920F920FB60F9211242F9384
:1019F0003F934F935F936F937F938F939F93AF9397
:101A0000BF93CF93EF93FF93E0914502F09146028D
:101A1000C08180914702C823809148029091490279
:101A200020914802309149022F3F3F4F29F0019603
:101A3000909349028093480220914302211115C0DE
:101A4000C1114BC0813A910558F010924C0290930D
:101A50004F0280934E0281E080934D0280934302B7
:101A6000109249021092480238C0213099F4CC23D8
:101A7000A1F1E0914D022E0F20934D02F0E0ED5BBD
:101A8000FD4F8F3F910519F010F08FEF90E08587A3
:101A900082E0E4CF223009F047C0E0914D02813A64
:101AA000910510F4E73CA0F1E83C18F081E0809348
:101AB0004C0280914E0290914F0290934503809387
:101AC0004403E093430383E080934302E0914A029E
:101AD000F0914B02309709F00995809152038823C9
:101AE00029F081E0C11180E00E946007FF91EF9131
:101AF000CF91BF91AF919F918F917F916F915F91A6
:101B00004F913F912F910F900FBE0F901F901895FE
:101B1000C111E3CF91E09E0F90934D02F0E0ED5B99
:101B2000FD4F858781E09ACF2330B9F6C111D5CF1B
:101B300097CFDF92EF92FF920F931F93CF93DF9394
:101B4000EC01D62E8A017901F0E090E080E030E0EF
:101B5000E0E0DE01AE0FB11D2C91FF5F222339F0D2
:101B6000320F2E9F800D911D11241C92F0E0332323
:101B7000B9F0DE1611F0F23098F0232F2695820F7F
:101B8000911D632F70E00E94B51FDE01A60FB11DED
:101B90003C93D8013C9131110FC06C9390E080E0F0
:101BA000EF5FDE16B0F681E0DF91CF911F910F91CC
:101BB000FF90EF90DF900895D7013C91332369F3B4
:101BC00080E0F2CF3F924F925F926F927F928F921E
:101BD0009F92AF92BF92CF92DF92EF92FF920F93BC
:101BE0001F93CF93DF93CDB7DEB7E6970FB6F89488
:101BF000DEBF0FBECDBFE1EAF1E01382128288EEB4
:101C0000C82E83E0D82EE12CF12CC482D582E68246
:101C1000F7828CE491E09183808385EC90E0958756
:101C2000848784EC90E09787868780EC90E0918BA6
:101C3000808B81EC90E0938B828B82EC90E0958B93
:101C4000848B86EC90E0978B868B118E128E138E90
:101C5000148E10925103E3E4F2E0118221E0248318
:101C600089E290E093838283509810923E0289E04B
:101C7000EFE3F1E0DE019E9601900D928A95E1F787
:101C800089E0FE01BE96DE01119601900D928A95C3
:101C9000E1F783E593E03FEFDC0112963C93129766
:101CA00013963C93139714961C9214976EE571E06B
:101CB00011967C936E9342E015964C93159745E0F0
:101CC00016964C93169748E0342E17963C92179729
:101CD00018962C93189719962C931997FC01128635
:101CE0001386148615861E961D921D921D921C92B7
:101CF0005197C28AD38AE48AF58A56961D921D921C
:101D00001D921C92599708EE13E05B961C930E935C
:101D10005A9742E350E05D965C934E935C975E96D3
:101D20002C935E975F961C925F9790961C9290976B
:101D300092965C934E939197E9E0BE2EFE01319608
:101D4000A6E7B3E001900D92BA94E1F7812C912CB3
:101D5000F0E2AF2EF0E4BF2EDC019C968D929D92B6
:101D6000AD92BC929F97E0E44E2EE6E05E2E612C91
:101D7000712CFC0140AA51AA62AA73AA812C912C51
:101D80008AE7A82E85E4B82ED4968D929D92AD92C6
:101D9000BC92D79710AE11AE12AE13AEDC961D9268
:101DA0001D921D921C92DF97109293031092940340
:101DB00089E0EFE3F1E0DE01959601900D928A95BE
:101DC000E1F789E0FE01B596DE011A9601900D92C9
:101DD0008A95E1F730939703309398031092990313
:101DE000709396036093950383E080939A0386E053
:101DF00080939B0330929C0320939D0320939E032A
:101E000010929F031092A0031092A1031092A203BC
:101E10001092A3031092A4031092A5031092A6039C
:101E2000C092A703D092A803E092A903F092AA035C
:101E30001092AB031092AC031092AD031092AE035C
:101E40001093B0030093AF035093B2034093B103D8
:101E50002093B3031092B4031092B5035093B703C9
:101E60004093B60389E0FE013A96A8EBB3E00190F7
:101E70000D928A95E1F780E090E0A0E2B0E48093D3
:101E8000C1039093C203A093C303B093C4034092D1
:101E9000C5035092C6036092C7037092C803809234
:101EA000C9039092CA03A092CB03B092CC031092C4
:101EB000CD031092CE031092CF031092D003109254
:101EC000D1031092D2031092D3031092D403109234
:101ED000D5031092D60389E0EFE3F1E0DE015C96D2
:101EE00001900D928A95E1F789E0FE017C96DE0172
:101EF000539601900D928A95E1F73093D903309370
:101F0000DA031092DB037093D8036093D70384E065
:101F10008093DC0387E08093DD033092DE0320931F
:101F2000DF032093E0031092E1031092E20310928A
:101F3000E3031092E4031092E5031092E60310927B
:101F4000E7031092E803C092E903D092EA03E0921B
:101F5000EB03F092EC031092ED031092EE0310925B
:101F6000EF031092F0031093F2030093F1035093E8
:101F7000F4034093F3032093F5031092F6031092B9
:101F8000F7035093F9034093F80389E0FE01739639
:101F9000AAEFB3E001900D928A95E1F780E090E01E
:101FA000A0E2B0E48093030490930404A09305049A
:101FB000B09306044092070450920804609209040A
:101FC00070920A0480920B0490920C04A0920D046B
:101FD000B0920E0410920F0410921004109211048B
:101FE000109212041092130410921404109215040B
:101FF000109216041092170410921804E6960FB669
:10200000F894DEBF0FBECDBFDF91CF911F910F912E
:10201000FF90EF90DF90CF90BF90AF909F908F9008
:102020007F906F905F904F903F900895CF93DF9394
:10203000CDB7DEB7C754D1090FB6F894DEBF0FBED7
:10204000CDBF789484B5826084BD84B5816084BD41
:1020500085B5826085BD85B5816085BD80916E0046
:10206000816080936E001092810080918100826077
:1020700080938100809181008160809381008091B4
:1020800080008160809380008091B10084608093A3
:10209000B1008091B00081608093B00080917A009F
:1020A000846080937A0080917A00826080937A00C5
:1020B00080917A00816080937A0080917A008068B4
:1020C00080937A001092C100E091B101F091B201C9
:1020D00082E08083E091AD01F091AE011082E09149
:1020E000AF01F091B00180E180831092B901E091DD
:1020F000B501F091B60186E08083E091B301F091E3
:10210000B401808180618083E091B301F091B401DA
:10211000808188608083E091B301F091B401808177
:1021200080688083E091B301F091B40180818F7D5C
:10213000808387EC91E00E94110885EA91E00E947B
:10214000D10442E060E070E088EC94E40E948409ED
:1021500085E891E00E94D10442E060E070E080E216
:1021600090E40E94840985E691E00E94D10442E057
:1021700064EE78E38EE890E40E94840981E491E0C3
:102180000E94D10442E050E06CE177EC81E391E4FD
:102190000E945D0A0E94BF034B015C0123E5E22E11
:1021A00023E0F22ED12CC12C77247A9461E0D70160
:1021B00015968C910E948E0361E0F70186810E9442
:1021C0008E0360E0D70115968C910E94420360E077
:1021D000F70186810E944203D70119968C911997C5
:1021E0008823F1F061E017968C910E948E03F7012D
:1021F000608587810E944203D70190968C91882345
:1022000079F082ED90E00E94D104F7016781062EFB
:10221000000C770B880B990B0E948E080E940D080A
:1022200061E0C7010E941D08D7011A961D921D92F8
:102230001D921C921D97F70116861786108A118A27
:1022400056968D929D92AD92BC92599781E05E9682
:102250008C935E9713967C92139712961C9212970A
:1022600014968C931497ED91FC910680F781E02DE4
:10227000950184014FEF60E0C7010995F70180A146
:10228000882321F082EF90E00E941108F701EF5BB4
:10229000FF4F8081882321F08AE091E00E9411089D
:1022A00086E291E00E94D104C6010E9488088FE175
:1022B00091E00E941108FFEFCF1ADF0A22E4E20E3C
:1022C000F11C33E0C316D10409F070CF8CE0809389
:1022D000440280E18093470283E290E090934602BB
:1022E000809345022498109252031092510382E089
:1022F0008093B0008093B10084E68093B300809314
:10230000B4001092B20080914302833011F4109215
:10231000430284E080937000109284010E94BF0306
:102320004B015C0194EFC92EDD24D394E12CF12CF8
:102330000E94BF03681979098A099B09683E7340A6
:1023400081059105A8F341E0C41AD108E108F1081C
:1023500068EE860E63E0961EA11CB11CC114D10468
:10236000E104F10429F7CE0101969CAF8BAF0E94E6
:10237000BF034B015C012FB7F894809193019091BA
:102380009401A0919501B09196012FBF8BAB9CABAE
:10239000ADABBEAB80914302833009F0F3C18091B5
:1023A0004C02882309F465C080E4809342031092B4
:1023B00019031092180310921D0310921C0310921F
:1023C0001B0310921A031092200310922103109203
:1023D0002203109223031092410310924003809134
:1023E000420386FDC5C110914303812F8F7B84304A
:1023F00009F0C1C08091510260E073E290E00E9458
:102400009605882309F444C18091520290E044E18A
:1024100050E0143009F048C060EC78E00E94750587
:10242000882309F435C18091530260E372E090E0A3
:102430000E949605882309F42BC181E08093420312
:10244000809148039091490390931B0380931A0352
:1024500080914A0390914B0390931D0380931C033A
:10246000809146039091470390931903809318033A
:102470007FC11092420380911803909119039093A9
:1024800047038093460380911C0390911D03909312
:102490004B0380934A0380911A0390911B039093FE
:1024A00049038093480383CF60E871E10E9475057A
:1024B000882309F4EDC043E060E288EA92E00E94DC
:1024C000180C809120039091210340912203509198
:1024D0002303242F30E030931D0320931C039C0121
:1024E0002E3EB7E83B0721F583E090E09093190377
:1024F00080931803852F90E090931B0380931A0319
:1025000080E290E090934103809340038AE795E056
:102510000E9435038091420380FF2AC129E030E008
:10252000309319032093180380628093420320C1E3
:102530009095891310C090E090931B0380931A0329
:10254000852F809548130CC088E090E09093190384
:1025500080931803D5CF30931B0320931A03F0CF39
:102560008AE090E0909319038093180340931C0332
:1025700050931D03C5CF143609F08AC084E992E058
:102580000E94F805882309F483C043E060E184E9F0
:1025900092E00E94180CD09020030D2D1091210381
:1025A000BBE0EB2EF12C0230E0E21E07F9F0AEE0CA
:1025B000EA2EF12C0A3AFAE51F07C1F0FDE0EF2EF2
:1025C000F12C043522E3120789F0EFE0EE2EF12C16
:1025D000033031E0130751F080E1E82EF12C033293
:1025E0004BEC140719F07CE0E72EF12CD1268D2D51
:1025F00082958F70D82643E260E284E992E00E94DF
:10260000180C8091200390912103A0912203B09196
:1026100023039C0164E0369527956A95E1F7309392
:102620001B0320931A032A2F30E030931D032093BD
:102630001C03282F2A2729273D2D3F70482F4F7034
:10264000341719F034E0309342036CE0E616F104DD
:1026500049F43091420330613093420310931F03D9
:1026600000931E032B1729F080914203846080930E
:10267000420380E390E09093410380934003F09203
:102680001903E09218038AE397E00E94350370C0B3
:1026900080914303803209F000C241E06FE080E89E
:1026A00092E00E94180C80916F0264E071E090E06B
:1026B0000E949605882309F4F0C18091200390912F
:1026C0002103A0912203B09123039C012F71332792
:1026D00030931B0320931A0355E0B695A795979561
:1026E00087955A95D1F7392F3370AC015527509300
:1026F0001D0340931C03409144035091450345360C
:10270000544008F0C7C12091420322602093420345
:10271000209150032F5F2093500320FF19C02130D8
:1027200019F021E02093420330914A0340914B037A
:10273000282F2095231729F020914203246020930D
:10274000420330931C0340931D03392F309533709F
:1027500087E190E0311102C084E090E0909319038A
:10276000809318038FE090E090934103809340039F
:1027700080911C038093840180914302833011F483
:102780001092430280918401882309F494C010922E
:1027900084018CEB92E00E94110810928901109242
:1027A00085011092860110928701109288019EE89F
:1027B000C92E91E0D92E05E111E021E9422E21E058
:1027C000522EF60111926F01D80114961D921D929E
:1027D0001D921C92179713961C921E921297ED90C1
:1027E000FC903701B0E46B0E711CF30180818823EB
:1027F000F1F1D70112968C9112978130C1F51E9696
:102800004D915D916D917C915197141615061606A8
:1028100017066CF51A968D919D910D90BC91A02D87
:10282000B7FD25C09A01AB01281B390B4A0B5B0B86
:10283000F70184AD95ADA6ADB7ADB7FDEEC661E0CD
:1028400070E080E090E00E941E1ED701D8962D9186
:102850003D914D915C91DB97DC01CB01820F931F81
:10286000A41FB51FF70180AF91AFA2AFB3AFD701DF
:102870001A961D921D921D921C921D97F7011686A5
:102880001786108A118AA501940162E0C7010E948F
:10289000FC06D701DC961D921D921D921C92DF97BB
:1028A000F3011082045F1F4F4C145D0409F089CFBF
:1028B00081E08093910185E1482E81E0582EF1E07E
:1028C000FDAFCC24C394312C212CD2016D907C908F
:1028D000F3018481882341F062816F3F29F0A501D3
:1028E0009401C3010E94C6087301F0E4EF0EF11CCD
:1028F000D7018C91882399F0F3018281823009F00D
:1029000090C614AE15AE16AE17AEF7011082319612
:102910008081882321F08BE293E00E941108F2016C
:10292000E080F180D70112961C91112309F4AFC603
:10293000123009F0ABC683ED94E00E94D104C101CE
:102940000E9488080E940D081DAEFFEF2F1A3F0A53
:102950002CE0420E511C33E02316310409F0B5CFB0
:1029600080919101882309F43FC0CC20E9F14DAD5D
:102970004423D1F180918901811136C0E091150184
:10298000F0911601DF01AF5BBF4F1C9210A2E091E6
:102990002101F0912201DF01AF5BBF4F1C9210A219
:1029A000E0912D01F0912E01DF01AF5BBF4F1C9232
:1029B00010A2109214018AEB93E00E94110881E0AA
:1029C000809389018BA99CA9ADA9BEA9805E914B7A
:1029D000AF4FBF4F8093850190938601A0938701ED
:1029E000B09388011092910180918901882309F4A4
:1029F00044C04BA95CA96DA97EA9809185019091E5
:102A00008601A0918701B0918801481759076A078C
:102A10007B0798F16DAD662381F1109289011092C8
:102A20008E0110928F011092900110921801109255
:102A300017011092190110921A0110921B011092A5
:102A40001C01109224011092230110922501109272
:102A50002601109227011092280110923001109245
:102A60002F01109231011092320110923301109215
:102A700034018EE793E00E94110880E090E0892BFA
:102A800009F475CC0E944E04882309F470CC0E948E
:102A900000006DCC109250035BCE80EE91E00E945E
:102AA000F805882309F446C0809143038A3129F050
:102AB0008A3219F0803209F03DC090E0BC016150CB
:102AC000710977FDBC017595679543E080EE91E053
:102AD0000E94180C8091200390912103A091220361
:102AE000B09123039C012F77332730931D0320934C
:102AF0001C0347E0B695A795979587954A95D1F71A
:102B000090931B0380931A032091430330E0C90183
:102B1000019797FDC90195958795909341038093FF
:102B2000400388E190E0909319038093180380EEAE
:102B300091E0ABCD81E08093A00189E793E0909391
:102B40009E0180939D0110929F010E943506813065
:102B500009F063C0C12CD12C760110E090914303A1
:102B60008091A0018917E0F40E943506082F0E9489
:102B7000350601110BC0813009F04FC0CC0CDD1CB3
:102B8000EE1CFF1C6894C0F81F5FE8CF013009F00D
:102B900044C0811142C0CC0CDD1CEE1CFF1CF4CFE4
:102BA000812F90E09093410380934003C0922003D3
:102BB000D0922103E0922203F09223038C2D8F7395
:102BC00090E090931D0380931C03960116E03695C8
:102BD00027951A95E1F72F71332730931B03209324
:102BE0001A03960122273071232B31F4805C9F4F0A
:102BF00090931D0380931C0380E880934203D3FECF
:102C000003C088E88093420381E190E09093190328
:102C1000809318038FEC99E038CD8091510268E6DB
:102C20007AE090E00E949605882309F448C08091DC
:102C3000520244E150E068E773E090E00E947505BD
:102C40008823E9F183E08093A0018CEB91E09093DD
:102C50009E0180939D0110929F010E943506813054
:102C600071F50E94350681112AC0C12CD12C760144
:102C700010E0909143038091A001891708F076C07D
:102C80000E943506782E1330B1F00E943506082FC9
:102C9000133021F40E943506081311C0F1E07F12B1
:102CA0005BC001110CC0CC0CDD1CEE1CFF1C689439
:102CB000C0F81F5FDECF0E943506781631F3F09022
:102CC00043032CE3F21619F034E0F31215C000911F
:102CD000510210E068E273E2C8010E94960581117A
:102CE00092C06CE175E2C8010E94960568EB7BE03A
:102CF00007E010E081118BC062E2F61609F4F6C01D
:102D000084E2F81225C188E092E00E94F805882349
:102D100009F41EC143E060E188E092E00E94180CD3
:102D20008091200390912103A0912203B09123036D
:102D3000492F5A2F6B2F772750931D0340931C0365
:102D4000992790931B0380931A0380E190E090935E
:102D5000410380934003F9C07110B1CF013009F0F5
:102D6000AECFCC0CDD1CEE1CFF1CA3CF812F90E05E
:102D70009093410380934003C0922003D09221039B
:102D8000E0922203F09223032C2D30E08D2D90E071
:102D9000133200F540E84093420330931D03209323
:102DA0001C0390931B0380931A03E0FE03C088E882
:102DB00080934203153128F0809142038061809313
:102DC000420382E190E0909319038093180383E714
:102DD0009AE05BCC40E94093420330931D0320937B
:102DE0001C0390931B0380931A03C7019F73909356
:102DF0001F0380931E03F7FE03C088E980934203FC
:102E000083E190E0E0CF68E670E106E010E08091B9
:102E1000520290E044E0F41215C044E150E060ED4D
:102E200077E00E947505882309F492C080915302CF
:102E300064EF71E090E00E949605882309F488C051
:102E400081E8FCCA44E150E00E947505882309F43A
:102E500053CF43E06CE184EF91E00E94180C80E8CE
:102E6000809342038091200390912103A09122033B
:102E7000B09123036C017D01E4E0F694E794D794CC
:102E8000C794EA95D1F7A601D0921D03C0921C0306
:102E90006C017D01F4E1F694E794D794C794FA9518
:102EA000D1F7D0921B03C0921A0324E030E060E017
:102EB000742F7F70670F74E0569547957A95E1F708
:102EC00021503109A9F786278F709927AA27BB2798
:102ED000892B8A2B8B2B19F084E880934203109363
:102EE0001903009318038CE190E03ECC80914403D9
:102EF000909145038C3E9C4508F03ACC809151025C
:102F00006EE072E090E00E949605882309F430CCD0
:102F1000809171026EE072E090E00E949605882335
:102F200009F426CC81E0809342038091480390917C
:102F3000490390931B0380931A0380914A03909155
:102F40004B0390931D0380931C0385E090E08CCA93
:102F500080914303982F9F7D943419F0863009F0B7
:102F60007DC08CE192E00E94F805882309F476C0C8
:102F7000809143038630B1F481E2809342038091D3
:102F800048039091490390931B0380931A03809107
:102F90004A0390914B0390931D0380931C0385E19A
:102FA00090E062CA43E060E28CE192E00E94180C7B
:102FB00090912003809121031091220320912303FB
:102FC00090931A0380931B0330914303022F0095C3
:102FD000343639F543E460E18CE192E00E94180C4C
:102FE0008091200390912103101731F0909598174C
:102FF00019F094E090934203982F812F90931D0332
:1030000080931C0380E390E09093410380934003FE
:1030100086E190E090931903809318038EEB9AE079
:1030200034CB101306C0412F50E050931D03409342
:103030001C0389130EC090E090931B0380931A0326
:1030400080E290E0909341038093400384E190E01C
:10305000E1CF10931C0320931D03F2CF8091430313
:10306000843269F580E392E00E94F805882339F103
:1030700043E060E180E392E00E94180C109120038D
:10308000809121038095181719F084E08093420302
:103090008DE692E00E943503812F90E090931D030E
:1030A00080931C0310921B0310921A0380E190E09E
:1030B00090934103809340038EE190E0D5C98091C5
:1030C00043038434C1F484E492E00E94F805882329
:1030D00091F043E060E284E492E00E94180C80E802
:1030E0008093420380E290E09093410380934003F9
:1030F0008DE190E0B9C9809151028E3E08F069C01F
:103100008091520244E150E062E074E090E00E945D
:103110007505882309F45DC080914303843209F06A
:1031200058C000910F01802F80714091070150918C
:10313000080104FD04C04091090150910A01001FDB
:103140000027001F21E0811101C020E063E080E141
:103150000E949A0580E88093420340912003909159
:103160002103242F392F592F52955F709F70A4E0AF
:1031700036952795AA95E1F72F704F708FE0852738
:1031800089278227481719F084E8809342036091C9
:10319000440370914503683F714128F480914203D4
:1031A00082608093420350931A0310921B03E0E164
:1031B0009E9FC0011124822B90931D0380931C03BA
:1031C00080E190E090934103809340038BE190E095
:1031D0004BC988E592E00E94F805882371F180913F
:1031E0004303843251F543E060E188E592E00E94B8
:1031F000180C8091730268E072E090E00E949605DE
:103200008823D9F0809120039091210398279F3F34
:10321000A1F490E090931D0380931C0380E190E063
:1032200090934103809340038AE190E090931903C7
:103230008093180388ED94E028CA80914303803777
:1032400009F04FC041E068E08CE692E00E94180C63
:103250008091200390912103A0912203B091230338
:10326000892B8A2B8B2BE9F541E16FE18CE692E00B
:103270000E94180CC0902003D0902103E0902203FC
:10328000F09023034FE461E18CE692E00E94180C79
:103290009091210380912203892798278927909371
:1032A0001D0380931C03C0922003D0922103E0925F
:1032B0002203F0922303D0921B03C0921A03F092D0
:1032C0001F03E0921E038CE190E09093190380931A
:1032D000180388E390E0909341038093400380E8D3
:1032E00024C980914303823108F442C192E3ABAD1B
:1032F000BCAD1D929A95E9F743E060E08250990BCE
:10330000242F30E028173907ACF42D5B3D4FF9012D
:103310002585223308F02CC1E1E0F0E0EC0FFD1F21
:10332000E20FF11D30813F5F3083621708F4622F96
:103330004E5FE6CF1AAE19AE9E01275C3F4FAE013D
:10334000465C5F4FCE0101960E94990D882309F4D7
:103350000FC182E3ABADBCAD1D928A95E9F74091F8
:1033600043034250550B24E060E0822F90E0841725
:103370009507ACF48D5B9D4FFC018585823308F089
:10338000F7C0E1E0F0E0EC0FFD1FE80FF11D9081C8
:103390009F5F9083681708F4682F2E5FE6CF18AE02
:1033A0001FAA9E01295C3F4FAE01485C5F4FCE01D2
:1033B00001960E94990D882309F4DAC08091430395
:1033C00086951FEF180FEFA8EE2011F01EEF180FD3
:1033D000212F30E03093410320934003C90101972E
:1033E00097FD4F969C01F5E035952795FA95E1F705
:1033F0003EAF2DAF3DAD3FAFC9ACC11003C0EE2015
:1034000009F4B6C098AD82E3989F100111246AAC0C
:10341000689E30011124C89E60011124E89E70014D
:103420001124E3E04E2E512C812F113208F080E25E
:103430009FA9992309F47CC0A2E0B0E0B0931903DE
:10344000A093180300E020E0A701642D0E949A05D4
:103450008091200390912103A0912203B091230336
:1034600024E0529EF0011124E05DFC4F80839183A3
:10347000A283B38330E4430E105253944FAD4515ED
:1034800098F62091440330914503203D3740F0F4F5
:10349000EDADFEADEE0FFF1FEE0FFF1FE05DFC4F29
:1034A000008111812281338140914C0350914D0361
:1034B00060914E0370914F030417150726073707D5
:1034C00029F42091420321602093420380934C030E
:1034D00090934D03A0934E03B0934F03209151025C
:1034E00092E3299F90011124309325032093240314
:1034F00080915202899FC0011124909327038093E9
:10350000260370922D0360922C0330922F03209299
:103510002E03C114D10419F1E114F10499F4D092ED
:103520002903C092280330922B0320922A0320C93A
:10353000E1E0F0E0F0931903E093180300E021E0EC
:10354000A60183CFF0922B03E0922A037092290305
:1035500060922803D0922D03C0922C0309C9709267
:10356000290360922803F0922B03E0922A0300C9FA
:10357000E0914303E63008F4FBC811E025EC3DE997
:103580004CE151E8F0E00AE0612F70E0CB010296D7
:103590008E179F077CF58D5B9D4FDC011D968C91EE
:1035A0006D5B7D4FDB011D966C91809F7001112436
:1035B00098E0699FD0011124EA16FB06C8F0609FCD
:1035C000B0011124A8E08A9FC0011124FF24F394C4
:1035D0006817790710F462E0F62E63E971E080E085
:1035E00091E00E941E1E9B01AC012F251F5FCCCFD6
:1035F000F12CF3CF20932003309321034093220337
:103600005093230380E290E0909341038093400322
:103610001092190310921803ABC86FEF7FEFCB0124
:1036200012C981117CC986859785A089B189181630
:1036300019061A061B0614F580AD91ADA2ADB3AD07
:1036400044AD55AD66AD77AD840F951FA61FB71F6E
:1036500080AF91AFA2AFB3AFEF5BFF4F8081882304
:1036600069F083E093E00E94D104D301D8966D9174
:103670007D918D919C91DB970E94BA08F30114AE65
:1036800015AE16AE17AED7011C9249C91DAEC101C9
:103690000E940E07D82EB0919101BFAFBB2309F451
:1036A00020C1F101E257FE4F3F018081811195C198
:1036B000111195C1DD20A1F08CEB94E00E94D104A2
:1036C000C1010E9488088BE994E00E94D104D201D4
:1036D0008D919C910E940C0542E050E00E945D0A91
:1036E000F201E080F180D7019B968C919B97882313
:1036F000D1F020E030E0A90193966D917D918D91FC
:103700009C9196970E94781F18160CF4DBC020E05D
:1037100030E0A901F70167A170A581A592A50E94DB
:10372000FA1C87FDCFC0D701D8968D919D910D9041
:10373000BC91A02D24968CAF9DAFAEAFBFAF2497A8
:10374000B095A095909581959F4FAF4FBF4F28960C
:103750008CAF9DAFAEAFBFAF2897F701EF5BFF4FC8
:103760008081882361F082E593E00E94D10428964D
:103770006CAD7DAD8EAD9FAD28970E94BA08F70164
:10378000828181119FC024968CAD9DADAEADBFAD41
:103790002497892B8A2B8B2B09F087C0D2010D919E
:1037A0001C91F801EF5BFF4FD082F801D0A220E01E
:1037B00030E040E05FE364A975A986A997A90E945B
:1037C000601D20E030E044EB53E40E94D71E0E94CD
:1037D0007D1F161617061806190624F061E070E022
:1037E00080E090E0D80192967C936E93919781E06F
:1037F00080931401F3018083DD2009F4EEC084E896
:1038000094E00E94D104C1010E94880883E794E0FB
:103810000E94110800E020E030E0A90163E674E0B6
:10382000C1010E94690ACC2049F0D3018C91882300
:1038300009F4D5C0CFACDD2009F487C88BA99CA9B9
:10384000ADA9BEA940918A0150918B0160918C0174
:1038500070918D01841B950BA60BB70B843F914093
:10386000A105B10508F471C88CE194E00E94D1046F
:10387000C1010E9488088BEF93E00E94D104D2011D
:103880008D919C910E940C0542E050E00E945D0ADF
:103890008BA99CA9ADA9BEA980938A0190938B01A5
:1038A000A0938C01B0938D0150C895018401289696
:1038B0004CAD5DAD6EAD7FAD2897C7010E94B20AD9
:1038C00081116CCFDD2009F483C08CE494E00E9468
:1038D000D104C1010E94880883E394E00E9411088A
:1038E000A2CF80918901811130C8E3E3F0E0EC0FB1
:1038F000FD1FFA83E983D20112968D919C9181304C
:10390000910509F43FC074F5892B09F01EC8111107
:103910001CC880E090E0A4E3B2E4F20180879187C4
:10392000A287B38701E09C01AD016FEE73E0C10196
:103930000E94690AD20118964D915D916D917C911A
:103940001B97950184018D919C910E94A00B882367
:1039500011F40C94A51421E030E0F20133832283AA
:103960000C94A5148230910581F050E040E003975B
:1039700011F00C94A514B201CE0101960E94180713
:103980000C94A51442E050E0F6CF11110C94A5144C
:103990009501840140E050E064E372ECC7010E94AD
:1039A000A00B882311F40C94A51401E020E030E072
:1039B00044E352EC63EE73E0C1010E94690AE3E064
:1039C000F0E0D2011396FC93EE9312970C94A51499
:1039D000CC2011F40C94A51428CFC1102BCFC12CEE
:1039E0002ACFFB01DC0102C005900D9241505040EE
:1039F000D8F708950E943C1D08F481E00895E894EA
:103A000009C097FB3EF490958095709561957F4F26
:103A10008F4F9F4F9923A9F0F92F96E9BB279395D4
:103A2000F695879577956795B795F111F8CFFAF4E4
:103A3000BB0F11F460FF1BC06F5F7F4F8F4F9F4F15
:103A400016C0882311F096E911C0772321F09EE873
:103A5000872F762F05C0662371F096E8862F70E0D9
:103A600060E02AF09A95660F771F881FDAF7880FB3
:103A70009695879597F90895990F0008550FAA0B09
:103A8000E0E8FEEF16161706E807F907C0F0121671
:103A90001306E407F50798F0621B730B840B950B74
:103AA00039F40A2661F0232B242B252B21F40895C9
:103AB0000A2609F4A140A6958FEF811D811D089566
:103AC0000E94731D0C94E41D0E94D61D38F00E94C4
:103AD000DD1D20F0952311F00C94CD1D0C94D31D09
:103AE00011240C94181E0E94F51D70F3959FC1F3CC
:103AF000950F50E0551F629FF001729FBB27F00D9C
:103B0000B11D639FAA27F00DB11DAA1F649F6627F0
:103B1000B00DA11D661F829F2227B00DA11D621F3F
:103B2000739FB00DA11D621F839FA00D611D221FF9
:103B3000749F3327A00D611D231F849F600D211DDD
:103B4000822F762F6A2F11249F5750409AF0F1F060
:103B500088234AF0EE0FFF1FBB1F661F771F881FC9
:103B600091505040A9F79E3F510580F00C94CD1D17
:103B70000C94181E5F3FE4F3983ED4F38695779536
:103B80006795B795F795E7959F5FC1F7FE2B880F6F
:103B9000911D9695879597F9089597F99F6780E805
:103BA00070E060E008959FEF80EC089500240A948F
:103BB0001616170618060906089500240A94121608
:103BC0001306140605060895092E0394000C11F43B
:103BD000882352F0BB0F40F4BF2B11F460FF04C0E8
:103BE0006F5F7F4F8F4F9F4F089557FD9058440F41
:103BF000551F59F05F3F71F04795880F97FB991F4C
:103C000061F09F3F79F08795089512161306140608
:103C1000551FF2CF4695F1DF08C016161706180695
:103C2000991FF1CF86957105610508940895E89470
:103C3000BB2766277727CB0197F90895DB018F9380
:103C40009F930E94501EBF91AF91A29F800D911D26
:103C5000A39F900DB29F900D11240895A1E21A2EFA
:103C6000AA1BBB1BFD010DC0AA1FBB1FEE1FFF1F20
:103C7000A217B307E407F50720F0A21BB30BE40B70
:103C8000F50B661F771F881F991F1A9469F76095B7
:103C90007095809590959B01AC01BD01CF01089571
:103CA0000E945B1EA59F900DB49F900DA49F800D58
:103CB000911D11240895A29FB001B39FC001A39F3D
:103CC000700D811D1124911DB29F700D811D112455
:103CD000911D08955058BB27AA270E94821E0C945C
:103CE000E41D0E94D61D38F00E94DD1D20F039F43D
:103CF0009F3F19F426F40C94D31D0EF4E095E7FBD6
:103D00000C94CD1DE92F0E94F51D58F3BA176207D8
:103D100073078407950720F079F4A6F50C94171E15
:103D20000EF4E0950B2EBA2FA02D0B01B9019001D6
:103D30000C01CA01A0011124FF27591B99F0593F1A
:103D400050F4503E68F11A16F040A22F232F342F62
:103D50004427585FF3CF469537952795A795F040B0
:103D60005395C9F77EF41F16BA0B620B730B840BC5
:103D7000BAF09150A1F0FF0FBB1F661F771F881F7D
:103D8000C2F70EC0BA0F621F731F841F48F48795D5
:103D900077956795B795F7959E3F08F0B0CF9395C7
:103DA000880F08F09927EE0F9795879508950E9440
:103DB000EB1E0C94E41D0E94DD1D58F00E94D61DE0
:103DC00040F029F45F3F29F00C94CD1D51110C9463
:103DD000181E0C94D31D0E94F51D68F39923B1F3AE
:103DE000552391F3951B550BBB27AA276217730721
:103DF000840738F09F5F5F4F220F331F441FAA1FB5
:103E0000A9F335D00E2E3AF0E0E832D09150504070
:103E1000E695001CCAF72BD0FE2F29D0660F771F1E
:103E2000881FBB1F261737074807AB07B0E809F004
:103E3000BB0B802DBF01FF2793585F4F3AF09E3F89
:103E4000510578F00C94CD1D0C94181E5F3FE4F3DF
:103E5000983ED4F3869577956795B795F7959F5FCC
:103E6000C9F7880F911D9695879597F90895E1E018
:103E7000660F771F881FBB1F621773078407BA0777
:103E800020F0621B730B840BBA0BEE1F88F7E095D2
:103E900008950E94FD1D88F09F5798F0B92F99272B
:103EA000B751B0F0E1F0660F771F881F991F1AF025
:103EB000BA95C9F714C0B13091F00E94171EB1E055
:103EC00008950C94171E672F782F8827B85F39F054
:103ED000B93FCCF3869577956795B395D9F73EF4BE
:103EE00090958095709561957F4F8F4F9F4F089566
:103EF0000E943C1D08F48FEF08950E94FD1D58F1AB
:103F00009E5760F19851A0F0E9F0983020F5092E05
:103F10009927660F771F881F991F0A94D1F712C03F
:103F2000062E672F782F8827985F11F4000C07C0A2
:103F3000993FB4F38695779567959395D9F7611D69
:103F4000711D811D3EF490958095709561957F4F10
:103F50008F4F9F4F089568940C94181E0C94171E51
:103F60000E943C1D880B990B0895AA1BBB1B51E1B5
:103F700007C0AA1FBB1FA617B70710F0A61BB70BD9
:103F8000881F991F5A95A9F780959095BC01CD017E
:103F90000895052E97FB1EF400940E94E01F57FD24
:103FA00007D00E942E1E07FC03D04EF40C94E01F95
:103FB00050954095309521953F4F4F4F5F4F089555
:103FC00090958095709561957F4F8F4F9F4F089585
:103FD000EE0FFF1F0590F491E02D09940F931F93AE
:103FE000CF93DF938230910510F482E090E0E0916E
:103FF0001B04F0911C0430E020E0B0E0A0E030971A
:1040000099F42115310509F44AC0281B390B2430D5
:104010003105D8F58A819B816115710589F1FB0114
:1040200093838283FE0111C04081518102811381FB
:1040300048175907E0F04817590799F4109761F0AD
:1040400012960C93129713961C933296CF01DF9120
:10405000CF911F910F91089500931B0410931C049E
:10406000F4CF2115310551F04217530738F0A9015B
:10407000DB019A01BD01DF01F801C1CFEF01F9CFEA
:1040800090931C0480931B04CDCFFE01E20FF31F1D
:10409000819391932250310939832883D7CF20917E
:1040A000190430911A04232B41F420913B013091E3
:1040B0003C0130931A042093190420913901309166
:1040C0003A012115310541F42DB73EB740913D012C
:1040D00050913E01241B350BE0911904F0911A0414
:1040E000E217F307A0F42E1B3F0B2817390778F0CF
:1040F000AC014E5F5F4F2417350748F04E0F5F1F2E
:1041000050931A0440931904819391939FCFF0E048
:10411000E0E09CCFCF93DF930097E9F0FC0132976A
:1041200013821282A0911B04B0911C04ED0130E0B7
:1041300020E01097A1F420813181820F931F2091FC
:10414000190430911A042817390709F061C0F09357
:104150001A04E0931904DF91CF910895EA01CE1774
:10416000DF07E8F54A815B819E0141155105B1F7F2
:10417000E901FB83EA8349915991C40FD51FEC17DC
:10418000FD0761F4808191810296840F951FE901FA
:1041900099838883828193819B838A83F0E0E0E026
:1041A00012968D919C9113970097B9F52D913C91A2
:1041B0001197CD010296820F931F2091190430911F
:1041C0001A042817390739F6309751F510921C0454
:1041D00010921B04B0931A04A0931904BCCFD3838C
:1041E000C28340815181840F951FC817D90761F49C
:1041F0004E5F5F4F88819981480F591F51834083DB
:104200008A819B81938382832115310509F0B0CF88
:10421000F0931C04E0931B049ECFFD01DC01C0CF92
:1042200013821282D7CFF894FFCF1B00269E000284
:10423000049E0029029E000701006E000000015349
:1042400003000000000000000000009503000000D3
:1042500000000000000000D7030000000000000084
:1042600000000000001D048000000034C300003482
:104270004301000000008404E4031104EC04420440
:1042800020043404000000005F054E0C6105610944
:104290006005C608D7060D0A006E616E00696E667D
:0E42A000006F7666002073746570732E000048
:107E0000112484B714BE81FFF0D085E080938100F7
:107E100082E08093C00088E18093C10086E0809377
:107E2000C20080E18093C4008EE0C9D0259A86E02C
:107E300020E33CEF91E0309385002093840096BBD3
:107E4000B09BFECF1D9AA8958150A9F7CC24DD24C4
:107E500088248394B5E0AB2EA1E19A2EF3E0BF2EE7
:107E6000A2D0813461F49FD0082FAFD0023811F036
:107E7000013811F484E001C083E08DD089C08234E0
:107E800011F484E103C0853419F485E0A6D080C0E4
:107E9000853579F488D0E82EFF2485D0082F10E0AE
:107EA000102F00270E291F29000F111F8ED06801E7
:107EB0006FC0863521F484E090D080E0DECF843638
:107EC00009F040C070D06FD0082F6DD080E0C81688
:107ED00080E7D80618F4F601B7BEE895C0E0D1E017
:107EE00062D089930C17E1F7F0E0CF16F0E7DF06D8
:107EF00018F0F601B7BEE89568D007B600FCFDCFD4
:107F0000A601A0E0B1E02C9130E011968C91119780
:107F100090E0982F8827822B932B1296FA010C0160
:107F200087BEE89511244E5F5F4FF1E0A038BF0790
:107F300051F7F601A7BEE89507B600FCFDCF97BE46
:107F4000E89526C08437B1F42ED02DD0F82E2BD052
:107F50003CD0F601EF2C8F010F5F1F4F84911BD097
:107F6000EA94F801C1F70894C11CD11CFA94CF0C13
:107F7000D11C0EC0853739F428D08EE10CD085E9AC
:107F80000AD08FE07ACF813511F488E018D01DD067
:107F900080E101D065CF982F8091C00085FFFCCF94
:107FA0009093C60008958091C00087FFFCCF809118
:107FB000C00084FD01C0A8958091C6000895E0E648
:107FC000F0E098E1908380830895EDDF803219F02E
:107FD00088E0F5DFFFCF84E1DECF1F93182FE3DFCA
:107FE0001150E9F7F2DF1F91089580E0E8DFEE27F6
:047FF000FF270994CA
:027FFE00040479
:00000001FF
