:020000040000FA
:100000000C9435000C945D000C945D000C945D0024
:100010000C945D000C945D000C945D000C945D00EC
:100020000C945D000C945D000C945D000C945D00DC
:100030000C945D000C945D000C945D000C945D00CC
:100040000C9457080C945D000C94C7080C94A108FC
:100050000C945D000C945D000C945D000C945D00AC
:100060000C945D000C945D00F90811241FBECFEFC5
:10007000D8E0DEBFCDBF14E0A0E0B1E0E0ECF3E2F9
:1000800002C005900D92AE35B107D9F725E0AEE577
:10009000B4E001C01D92AE36B207E1F710E0C5E34F
:1000A000D0E004C02197FE010E94D20DC433D107D5
:1000B000C9F70E94E9090C94DE110C9400003FB7C7
:1000C000F8948091630490916404A0916504B091C8
:1000D000660426B5A89B05C02F3F19F00196A11D07
:1000E000B11D3FBFBA2FA92F982F8827BC01CD0182
:1000F000620F711D811D911D42E0660F771F881FE1
:10010000991F4A95D1F70895AF92BF92CF92DF928F
:10011000EF92FF920F931F93CF93DF936C017B01BC
:100120008B01040F151FEB015E01AE18BF08C0174D
:10013000D10759F06991D601ED91FC910190F081C0
:10014000E02DC6010995892B79F7C501DF91CF9183
:100150001F910F91FF90EF90DF90CF90BF90AF90E5
:100160000895FC01538D448D252F30E0842F90E0BD
:10017000821B930B541710F0CF96089501970895A2
:10018000FC01918D828D981761F0A28DAE0FBF2F6B
:10019000B11D5D968C91928D9F5F9F73928F90E0C1
:1001A00008958FEF9FEF0895FC01918D828D981730
:1001B00031F0828DE80FF11D858D90E008958FEF6D
:1001C0009FEF0895FC01918D228D892F90E0805C36
:1001D0009F4F821B91098F739927089587E694E0BA
:1001E0000E94E20021E0892B09F420E0822F08958B
:1001F00080E090E0892B29F00E94EE0081110C94A0
:1002000000000895FC01A48DA80FB92FB11DA35AB9
:10021000BF4F2C91848D90E001968F739927848F26
:10022000A689B7892C93A089B1898C918370806449
:100230008C93938D848D981306C00288F389E02DEA
:1002400080818F7D80830895EF92FF920F931F939B
:10025000CF93DF93EC0181E0888F9B8D8C8D981379
:100260001AC0E889F989808185FF15C09FB7F89485
:10027000EE89FF896083E889F989808183708064D1
:1002800080839FBF81E090E0DF91CF911F910F911C
:10029000FF90EF900895F62E0B8D10E00F5F1F4F2B
:1002A0000F731127E02E8C8D8E110CC00FB607FC3A
:1002B000FACFE889F989808185FFF5CFCE010E94C8
:1002C0000201F1CFEB8DEC0FFD2FF11DE35AFF4F33
:1002D000F0829FB7F8940B8FEA89FB898081806256
:1002E000CFCFCF93DF93EC01888D8823B9F0AA8913
:1002F000BB89E889F9898C9185FD03C0808186FDE1
:100300000DC00FB607FCF7CF8C9185FFF2CF80812F
:1003100085FFEDCFCE010E940201E9CFDF91CF91A1
:10032000089508958F929F92AF92BF92CF92DF92DD
:10033000EF92FF92FC01C084D184E284F384C11463
:10034000D104E104F10421F4C12CD12C7601C39431
:10035000FC016089718982899389A70196010E94B5
:10036000B30D97FF04C06C0D7D1D8E1D9F1D0E9457
:100370003C0C4B015C01C701B6010E943C0C9B0187
:10038000AC01C501B4010E94920B20E030E044EBC7
:1003900053E40E94240DFF90EF90DF90CF90BF9028
:1003A000AF909F908F9008959A01AB01DC01129657
:1003B0006C9112976F3F31F0ED91FC910284F385BF
:1003C000E02D09940895FC01248121110C94D4019D
:1003D00008958F929F92AF92BF92EF92FF920F93E8
:1003E0001F93CF93DF93EC018C81882309F1EA807E
:1003F0006E15F1F049015A01F62E8FEFE81659F00B
:10040000E881F9810084F185E02D9A018401462F6D
:100410006E2DCE010995EB82FA82E881F981068082
:10042000F781E02D950184014E2D6F2DCE010995A8
:10043000DF91CF911F910F91FF90EF90BF90AF9000
:100440009F908F900895DC0114967C9114977723E8
:1004500059F012967C9112977F3F31F0ED91FC910B
:100460000484F585E02D0994089508957FEF760FB3
:10047000723070F4DC011696ED91FC91728171116D
:1004800007C0613019F462E00C94E90161E0FCCF2F
:1004900008950895CF92DF92EF92FF92CF93DF936A
:1004A000EC016A017B018E819F81FC012481211175
:1004B0000E94D4018C81882359F0B701A601CE0196
:1004C000DF91CF91FF90EF90DF90CF900C94D4010B
:1004D000DF91CF91FF90EF90DF90CF900895FC01D6
:1004E00001900020E9F73197AF01481B590BBC017F
:1004F00087E694E00C9484008F929F92AF92BF9213
:10050000CF92DF92EF92FF920F931F93CF93DF93DF
:10051000CDB7DEB7A1970FB6F894DEBF0FBECDBF43
:10052000FC018081882309F44DC082819381681782
:1005300079070CF447C079016A018181882381F130
:100540008BE491E00E946F028FB7F89420915F04D2
:100550003091600440916104509162048FBF19A2F0
:100560008E010F5D1F4F8AE0882E912CA12CB12C9B
:10057000CA01B901A50194010E94910D605DF801C5
:1005800062938F01211531054105510589F7309797
:1005900019F0CF010E946F028DE491E00E946F027A
:1005A0008BE491E00E946F02C6010E946F0282E517
:1005B00091E00E946F02C7010E946F0285E591E001
:1005C0000E946F02A1960FB6F894DEBF0FBECDBF9A
:1005D000DF91CF911F910F91FF90EF90DF90CF901F
:1005E000BF90AF909F908F900895EF92FF920F93DE
:1005F0001F93CF93DF93CDB7DEB7C058D1090FB6A5
:10060000F894DEBF0FBECDBFE0916405EE23C1F0CC
:10061000E0916605F09167058E179F078CF07B01CE
:100620008C0160E870E0CE0101960E94FD0E9E01F3
:100630002F5F3F4FA701B80184E695E00E947C023E
:10064000C058DF4F0FB6F894DEBF0FBECDBFDF91AD
:10065000CF911F910F91FF90EF900895CF93DF936B
:10066000CDB7DEB79E01275F3F4F4F81588568E5C4
:1006700071E081E090E00E94F502DF91CF91089552
:10068000CF93DF93CDB7DEB79E01275F3F4F4DE598
:1006900051E066E971E083E090E00E94F502DF91AD
:1006A000CF910895CF93DF93CDB7DEB79E01275F3B
:1006B0003F4F4CE951E060ED71E082E090E00E9434
:1006C000F502DF91CF910895CF93DF93CDB7DEB7D9
:1006D0009E01275F3F4F4F81588565ED71E090E0A7
:1006E00080E00E94F502DF91CF910895CF92DF92D2
:1006F000EF92FF920F931F93CF93DF93EC018EA5A0
:100700009FA5A8A9B9A98A019B01081B190B2A0B4F
:100710003B0B8AA99BA9ACA9BDA9081719072A07F1
:100720003B070CF450C04EA75FA768AB79ABEA81DA
:100730000BED11E0E33038F4F0E0EE0FFF1FEA5F5D
:10074000FE4F008111816A017B01CE010E9492015E
:100750002DA51F922F9320E030E048EC52E40E9438
:10076000240D0E94040C9F938F937F936F938F8926
:100770008F938E898F938D898F938C898F938B899B
:100780008F938A898F9389898F9388898F931F93F9
:100790000F93FF92EF92DF92CF9283EE91E09F93BF
:1007A0008F938CEE91E09F938F9384E695E09F93D7
:1007B0008F930E9464038DB79EB74A960FB6F89444
:1007C0009EBF0FBE8DBFDF91CF911F910F91FF9004
:1007D000EF90DF90CF9008951F924F931F926F93E9
:1007E0008BE392E09F938F9384E695E09F938F93A2
:1007F0000E9464038DB79EB708960FB6F8949EBF0B
:100800000FBE8DBF08950F931F93CF93DF93EC011D
:10081000062F142F0E94920120E030E048EC52E4B1
:100820000E94240D0E94040C9F938F937F936F93DB
:100830008F898F938E898F938D898F938C898F93D6
:100840008B898F938A898F9389898F9388898F93D6
:100850001F920F931F921F9383E692E09F938F93B3
:1008600084E695E09F938F930E9464038DB79EB7B3
:1008700044960FB6F8949EBF0FBE8DBFDF91CF9107
:100880001F910F910895FC0172817130D1F018F021
:10089000723009F10895613021F0643031F080E068
:1008A000089561E00E94E9010AC020EB32E045EDC5
:1008B00051E070E060E084E695E00E947C0281E017
:1008C0000895633031F0643041F0623041F760E008
:1008D000E9CF62E0E7CF643011F7FC0115A6F7CF4E
:1008E0004F925F926F927F928F929F92AF92BF9240
:1008F000CF92DF92EF92FF920F931F93CF93DF93EC
:10090000EC0149015A016130C9F018F0623009F078
:10091000FCC0B501A401CE01DF91CF911F910F91D1
:10092000FF90EF90DF90CF90BF90AF909F908F900F
:100930007F906F905F904F900C9476038DA58823E5
:1009400041F38DA19EA1AFA1B8A50097A105B10566
:1009500021F489A59AA5ABA5BCA549A15AA16BA173
:100960007CA195018401041B150B260B370BB901E3
:10097000A80184179507A607B7075CF521EE32E0BA
:1009800046E951E063E070E084E695E00E947C0275
:100990001DA620E133E046E951E063E070E084E623
:1009A00095E00E947C02A501940163E0CE01DF91F5
:1009B000CF911F910F91FF90EF90DF90CF90BF905C
:1009C000AF909F908F907F906F905F904F900C941E
:1009D00023024D8C5E8C6F8C78A0D501C4018419E4
:1009E0009509A609B709B7FD94CF2C8DC22E022E0A
:1009F000000CDD08EE08FF0888899989AA89BB895F
:100A0000C80ED91EEA1EFB1EC88AD98AEA8AFB8A4A
:100A10008C899D89AE89BF891216ECF4C816D90657
:100A2000EA06FB06ECF4C88CD98CEA8CFB8C20E03F
:100A300030E0A901C701B6010E948D0B1816F4F130
:100A400038EE430E33E0531E611C711C4D8E5E8EDA
:100A50006F8E78A2BECF8C159D05AE05BF051CF329
:100A60001DA6CE010E94920120E030E048EC52E445
:100A70000E94240D0E94040C9F938F937F936F9389
:100A8000FF92EF92DF92CF9288E393E09F938F9350
:100A900084E695E09F938F930E942E03A501940115
:100AA00062E0CE010E9423022DB73EB7245F3F4F84
:100AB0000FB6F8943EBF0FBE2DBF2BCFA7019601F6
:100AC00060E070E08AE794E40E94920B6B017C0185
:100AD00020E030E040E85FE30E948D0B87FF06C016
:100AE000C12CD12C80E8E82E8FE3F82E20E030E0F6
:100AF00040E05FE3C701B6010E94210B0E940B0C8E
:100B0000460E571E681E791EA1CF1F926F938CE967
:100B100091E09F938F9384E695E09F938F930E943B
:100B200052030F900F900F900F900F900F90DF9146
:100B3000CF911F910F91FF90EF90DF90CF90BF90DA
:100B4000AF909F908F907F906F905F904F9008959F
:100B50002F923F924F925F926F927F928F929F92CD
:100B6000AF92BF92CF92DF92EF92FF920F931F93BB
:100B7000CF93DF93CDB7DEB765970FB6F894DEBF9E
:100B80000FBECDBF1C012A013B010D831E832F83A5
:100B90003887FC01EE5BFF4F80818823D1F0AB01E9
:100BA0009201D101DA966D917D918D919C91DD97A5
:100BB0000E94EC0C18160CF45BC0A3019201F10129
:100BC000FE9660817181828193810E948D0B87FDE9
:100BD0004FC0F10160857185828593850E943C0C30
:100BE000D101D6962D913D914D915C91D9970E945E
:100BF000240D69837A838B839C8320E030E044EB6F
:100C000053E4C301B2010E94920B29813A814B81C6
:100C10005C810E94240D0E94F10C2B013C0120E01C
:100C200030E044EB53E46D817E818F8198850E9492
:100C3000920B29813A814B815C810E94240D69834A
:100C40007D838C0120E030E0A901912F0E948D0B63
:100C5000181674F4F1018281823061F42EE633E0DB
:100C600040ED51E062E070E084E695E00E947C0295
:100C700080E0DFC0B485B987F585FD87D1011E9678
:100C8000BC91B98BF101F785FD8B79856D85272F97
:100C9000362F4B2F5F2FB981AD816B2F7A2F802F8D
:100CA000912F0E94EC0C1816F4F42D892F9339899A
:100CB0003F934D854F9359855F931F930F938D817C
:100CC0008F9399819F938DE591E09F938F9384E615
:100CD00095E09F938F930E9440030FB6F894DEBF78
:100CE0000FBECDBFC5CFF101448A558A668A778A87
:100CF00059814D81852F942FA02FB12F808F918FF7
:100D0000A28FB38F81A292A2A3A2B4A2C114D104D4
:100D1000E104F10421F4C1A4D2A4E3A4F4A4F101F8
:100D2000C5A2D6A2E7A2F0A681E085A720893189D5
:100D30004289538929873A874B875C87D301C2014F
:100D4000821B930BA40BB50B8D879E87AF87B88B47
:100D5000B7FF88C08FEFD1015C968C9379816D814C
:100D6000272F362F402F512F60E070E08AE794E460
:100D70000E94920B698B7A8B8B8B9C8B20E030E0EE
:100D800040E85FE30E948D0B87FF08C020E030E061
:100D900040E85FE3298B3A8B4B8B5C8B20E030E0A3
:100DA00040E05FE369897A898B899C890E94210BE5
:100DB0000E940B0C680D791D8A1D9B1DD1015D964B
:100DC0006D937D938D939C939097FF92EF92DF921A
:100DD000CF921F930F93BD81BF93E981EF93F88961
:100DE000FF932F852F933E853F934D854F937F92A1
:100DF0006F925F924F925C855F938B858F939A85FC
:100E00009F93A985AF9386EA93E09F938F9384E69F
:100E100095E09F938F930E942E03A501940161E0BA
:100E2000C1010E9423020FB6F894DEBF0FBECDBFF2
:100E300081E065960FB6F894DEBF0FBECDBFDF919F
:100E4000CF911F910F91FF90EF90DF90CF90BF90C7
:100E5000AF909F908F907F906F905F904F903F905A
:100E60002F90089581E077CF4F925F926F927F929B
:100E70008F929F92AF92BF92CF92DF92EF92FF92AA
:100E80000F931F93CF93DF9300D000D0CDB7DEB781
:100E9000613019F1C0F0623011F180E00F900F90D5
:100EA0000F900F90DF91CF911F910F91FF90EF90D6
:100EB000DF90CF90BF90AF909F908F907F906F907A
:100EC0005F904F900895FC0162816150623018F08C
:100ED00061E00E94E90181E0E1CF60E0FACFFC012E
:100EE0006281633011F063E0F4CF148EC688D78836
:100EF000E08CF18C82889388A488B58889829A8254
:100F0000AB82BC82468457846088718849015A014B
:100F100009811A812B813C81B301A20186819781CD
:100F20000E94A805D8CF2F923F924F925F926F9266
:100F30007F928F929F92AF92BF92CF92DF92EF9269
:100F4000FF920F931F93CF93DF93EC01762E48010E
:100F5000590182E06817D1F1E3E06E1709F446C049
:100F6000F1E06F1320C01D82CD84D12CF12CE12C37
:100F70006C8570E090E080E00E943A0C2B013C010F
:100F800068857985072E000C880B990B0E943C0C14
:100F9000AB01BC01812C912C5401930182018E8103
:100FA0009F810E94A805DF91CF911F910F91FF9023
:100FB000EF90DF90CF90BF90AF909F908F907F90F9
:100FC0006F905F904F903F902F9008951D82CD8439
:100FD000D12CF12CE12C6C8570E090E080E00E9437
:100FE0003A0C2B013C016A857B85CCCF2E803F805B
:100FF000F10182818111D7CF8D81811118C0A901A2
:10100000980160E0CE01DF91CF911F910F91FF9089
:10101000EF90DF90CF90BF90AF909F908F907F9098
:101020006F905F904F903F902F900C94E9018C8DC2
:10103000813041F028F0823019F1833009F0B3CFCC
:1010400081E01CC0CE88DF88E88CF98C4A885B88F8
:101050006C887D882E853F854889598960E070E0DD
:10106000CB010E94210BAB01BC0193018201C101A4
:101070000E94A805882309F496CF82E08C8F93CF35
:10108000CE88DF88E88CF98C0A891B892C893D89F8
:101090004E855F8568897989C1010E94A8058823EA
:1010A00079F27C8E80CF0C94740E0C94740E1F9287
:1010B0000F920FB60F9211242F933F938F939F930C
:1010C000AF93BF9380915F0490916004A0916104FD
:1010D000B091620430915E0423E0230F2D3758F560
:1010E0000196A11DB11D20935E0480935F0490932F
:1010F0006004A0936104B0936204809163049091B2
:101100006404A0916504B09166040196A11DB11D0F
:101110008093630490936404A0936504B093660481
:10112000BF91AF919F918F913F912F910F900FBEE3
:101130000F901F90189526E8230F0296A11DB11D50
:10114000D2CF1F920F920FB60F9211242F933F937D
:101150004F935F936F937F938F939F93AF93BF93BF
:10116000EF93FF9387E694E00E940201FF91EF91D5
:10117000BF91AF919F918F917F916F915F914F91AF
:101180003F912F910F900FBE0F901F9018951F92B7
:101190000F920FB60F9211242F938F939F93EF937B
:1011A000FF93E0917704F09178048081E0917D04D1
:1011B000F0917E0482FD1BC09081809180048F5F3E
:1011C0008F7320918104821741F0E0918004F0E058
:1011D000E959FB4F958F80938004FF91EF919F9188
:1011E0008F912F910F900FBE0F901F9018958081B7
:1011F000F4CF8F929F92AF92BF92CF92DF92EF92F5
:10120000FF92CF93DF93CDB7DEB729970FB6F8944F
:10121000DEBF0FBECDBFE7E6F4E01382128288EE98
:1012200093E0A0E0B0E084839583A683B78380E158
:1012300091E09183808385EC90E09587848784ECAE
:1012400090E09787868780EC90E0918B808B81EC93
:1012500090E0938B828B82EC90E0958B848B86EC74
:1012600090E0978B868B118E128E138E148E84E6EF
:1012700095E0909369058093680589E0E2E4F1E0E8
:10128000DE01119601900D928A95E1F781E295E0D9
:101290002FEFFC0122832383148244E351E0518326
:1012A00040833BE0358336E0368344E0478340E0CB
:1012B00058E060E070E04087518762877387C12CF7
:1012C000D12C40E8E42E4FE3F42EC486D586E68682
:1012D000F786108A118A128A138A148A158A168A46
:1012E000178A108E118E128E138E41E0448F158E48
:1012F000168E178E10A211A212A213A214A215A26A
:1013000016A217A210A650E1852E57E2952EA12C09
:10131000B12C81A692A6A3A6B4A615A616A617A6BA
:1013200010AA11AA68EC862E912CA12CB12C82AAAD
:1013300093AAA4AAB5AAC6AAD7AAE0AEF1AE59E06C
:10134000FE013196ABE5B5E001900D925A95E1F7BB
:10135000E4E0F5E022832383148262E271E071838A
:10136000608345839783868386EA9FEF9187808792
:101370008AE590E0938782878EE184873587168699
:101380001786108A118A80E090E0A4EBB2E4828B89
:10139000938BA48BB58B80ED97E0A0E0B0E0868BBB
:1013A000978BA08FB18F85E0828F8FE0838F148E13
:1013B00029960FB6F894DEBF0FBECDBFDF91CF9157
:1013C000FF90EF90DF90CF90BF90AF909F908F9065
:1013D0000895789484B5826084BD84B5816084BDAD
:1013E00085B5826085BD85B5816085BD80916E00C3
:1013F000816080936E0010928100809181008260F4
:101400008093810080918100816080938100809130
:1014100080008160809380008091B100846080931F
:10142000B1008091B00081608093B00080917A001B
:10143000846080937A0080917A00826080937A0041
:1014400080917A00816080937A0080917A00806830
:1014500080937A001092C100C0916805D09169050F
:101460008881811137C0E0917704F091780482E09F
:101470008083E0917304F09174041082E09175040C
:10148000F091760480E1808310927F04E0917B04E8
:10149000F0917C0486E08083E0917904F0917A04F5
:1014A000808180618083E0917904F0917A04808169
:1014B00088608083E0917904F0917A04808180686B
:1014C0008083E0917904F0917A0480818F7D80831C
:1014D00081E088831B821A8219820E945F004B017F
:1014E0005C0184EFC82EDD24D394E12CF12C0E9402
:1014F0005F00681979098A099B09683E7340810574
:101500009105A8F321E0C21AD108E108F10888EE9C
:10151000880E83E0981EA11CB11CC114D104E10403
:10152000F10429F72AE034E048E551E061E070E099
:10153000CE010E947C028FB7F89440915F045091D5
:10154000600460916104709162048FBFC0910A05CC
:10155000D0910B05EE24EA94EB821A82FF24F394D7
:10156000FC82E881F9810680F781E02D00E010E03F
:1015700098014FEF60E0CE010995188A198A1A8AFE
:101580001B8A1C8A1D8A1E8A1F8A188E198E1A8E23
:101590001B8EFC8E1D8E1E8E1F8E18A219A21AA2E3
:1015A0001BA21CA289A59AA5ABA5BCA58DA39EA331
:1015B000AFA3B8A71DA61EA61FA618AA19AA2BE19D
:1015C00034E045ED51E070E060E084E695E00E9493
:1015D0007C02E092070510920605F09208052DE3C3
:1015E00034E048E551E061E070E080916805909159
:1015F00069050E947C02C0E0D0E08FB7F894C090EB
:101600005F04D0906004E0906104F09062048FBFAA
:10161000B701A60184E095E00E944A0210920905F4
:10162000A701960160E084E095E00E9423022097E4
:1016300021F30E94EE00882301F30E940000DDCF19
:101640005058BB27AA270E94380B0C94B20C0E945A
:10165000A40C38F00E94AB0C20F039F49F3F19F431
:1016600026F40C94A10C0EF4E095E7FB0C949B0C73
:10167000E92F0E94C30C58F3BA1762077307840757
:10168000950720F079F4A6F50C94E50C0EF4E0959E
:101690000B2EBA2FA02D0B01B90190010C01CA012C
:1016A000A0011124FF27591B99F0593F50F4503ED7
:1016B00068F11A16F040A22F232F342F4427585FC9
:1016C000F3CF469537952795A795F0405395C9F7E1
:1016D0007EF41F16BA0B620B730B840BBAF0915099
:1016E000A1F0FF0FBB1F661F771F881FC2F70EC038
:1016F000BA0F621F731F841F48F48795779567950B
:10170000B795F7959E3F08F0B0CF9395880F08F0F6
:101710009927EE0F9795879508950E94770C08F406
:1017200081E008950E94A60B0C94B20C0E94AB0CB1
:1017300058F00E94A40C40F029F45F3F29F00C946B
:101740009B0C51110C94E60C0C94A10C0E94C30C40
:1017500068F39923B1F3552391F3951B550BBB27E0
:10176000AA2762177307840738F09F5F5F4F220F25
:10177000331F441FAA1FA9F335D00E2E3AF0E0E81C
:1017800032D091505040E695001CCAF72BD0FE2F66
:1017900029D0660F771F881FBB1F261737074807FA
:1017A000AB07B0E809F0BB0B802DBF01FF279358B2
:1017B0005F4F3AF09E3F510578F00C949B0C0C94CF
:1017C000E60C5F3FE4F3983ED4F3869577956795F2
:1017D000B795F7959F5FC9F7880F911D96958795E7
:1017E00097F90895E1E0660F771F881FBB1F621706
:1017F00073078407BA0720F0621B730B840BBA0BC4
:10180000EE1F88F7E09508950E940B0C6894B111C3
:101810000C94E60C08950E94CB0C88F09F5798F02A
:10182000B92F9927B751B0F0E1F0660F771F881FE5
:10183000991F1AF0BA95C9F714C0B13091F00E94FF
:10184000E50CB1E008950C94E50C672F782F8827FC
:10185000B85F39F0B93FCCF3869577956795B39526
:10186000D9F73EF490958095709561957F4F8F4F95
:101870009F4F0895E89409C097FB3EF4909580959A
:10188000709561957F4F8F4F9F4F9923A9F0F92F46
:1018900096E9BB279395F695879577956795B795C4
:1018A000F111F8CFFAF4BB0F11F460FF1BC06F5FAA
:1018B0007F4F8F4F9F4F16C0882311F096E911C0BC
:1018C000772321F09EE8872F762F05C0662371F0DD
:1018D00096E8862F70E060E02AF09A95660F771FF1
:1018E000881FDAF7880F9695879597F90895990FCD
:1018F0000008550FAA0BE0E8FEEF16161706E807DA
:10190000F907C0F012161306E407F50798F0621BFA
:10191000730B840B950B39F40A2661F0232B242BCF
:10192000252B21F408950A2609F4A140A6958FEFEE
:10193000811D811D089597F99F6780E870E060E040
:1019400008959FEF80EC089500240A941616170658
:1019500018060906089500240A94121613061406A0
:1019600005060895092E0394000C11F4882352F003
:10197000BB0F40F4BF2B11F460FF04C06F5F7F4FBB
:101980008F4F9F4F089557FD9058440F551F59F0A2
:101990005F3F71F04795880F97FB991F61F09F3F5C
:1019A00079F087950895121613061406551FF2CF85
:1019B0004695F1DF08C0161617061806991FF1CFD5
:1019C00086957105610508940895E894BB276627FC
:1019D0007727CB0197F908950E94770C08F48FEFD1
:1019E00008950E94CB0C58F19E5760F19851A0F0D9
:1019F000E9F0983020F5092E9927660F771F881F88
:101A0000991F0A94D1F712C0062E672F782F8827C6
:101A1000985F11F4000C07C0993FB4F38695779551
:101A200067959395D9F7611D711D811D3EF49095C1
:101A30008095709561957F4F8F4F9F4F0895689463
:101A40000C94E60C0C94E50C0E94370D0C94B20C2F
:101A50000E94A40C38F00E94AB0C20F0952311F0EA
:101A60000C949B0C0C94A10C11240C94E60C0E9479
:101A7000C30C70F3959FC1F3950F50E0551F629F03
:101A8000F001729FBB27F00DB11D639FAA27F00DD7
:101A9000B11DAA1F649F6627B00DA11D661F829FFE
:101AA0002227B00DA11D621F739FB00DA11D621FE3
:101AB000839FA00D611D221F749F3327A00D611D00
:101AC000231F849F600D211D822F762F6A2F1124E2
:101AD0009F5750409AF0F1F088234AF0EE0FFF1F15
:101AE000BB1F661F771F881F91505040A9F79E3F6C
:101AF000510580F00C949B0C0C94E60C5F3FE4F3D2
:101B0000983ED4F3869577956795B795F795E795C1
:101B10009F5FC1F7FE2B880F911D9695879597F9CA
:101B20000895A1E21A2EAA1BBB1BFD010DC0AA1F1E
:101B3000BB1FEE1FFF1FA217B307E407F50720F036
:101B4000A21BB30BE40BF50B661F771F881F991FB1
:101B50001A9469F760957095809590959B01AC01FA
:101B6000BD01CF010895052E97FB1EF400940E943D
:101B7000CA0D57FD07D00E94910D07FC03D04EF40B
:101B80000C94CA0D50954095309521953F4F4F4F7D
:101B90005F4F089590958095709561957F4F8F4F19
:101BA0009F4F0895EE0FFF1F0590F491E02D0994CB
:101BB0000F931F93CF93DF938230910510F482E04F
:101BC00090E0E0916C05F0916D0530E020E0B0E030
:101BD000A0E0309799F42115310509F44AC0281B7B
:101BE000390B24303105D8F58A819B816115710547
:101BF00089F1FB0193838283FE0111C040815181F1
:101C00000281138148175907E0F04817590799F4E2
:101C1000109761F012960C93129713961C933296BC
:101C2000CF01DF91CF911F910F91089500936C0523
:101C300010936D05F4CF2115310551F0421753076C
:101C400038F0A901DB019A01BD01DF01F801C1CF24
:101C5000EF01F9CF90936D0580936C05CDCFFE0118
:101C6000E20FF31F81939193225031093983288326
:101C7000D7CF20916A0530916B05232B41F4209139
:101C800002013091030130936B0520936A05209186
:101C90000001309101012115310541F42DB73EB706
:101CA0004091040150910501241B350BE0916A0518
:101CB000F0916B05E217F307A0F42E1B3F0B2817DA
:101CC000390778F0AC014E5F5F4F2417350748F0B5
:101CD0004E0F5F1F50936B0540936A05819391935C
:101CE0009FCFF0E0E0E09CCFCF93DF930097E9F047
:101CF000FC01329713821282A0916C05B0916D05A0
:101D0000ED0130E020E01097A1F420813181820FB5
:101D1000931F20916A0530916B052817390709F048
:101D200061C0F0936B05E0936A05DF91CF91089550
:101D3000EA01CE17DF07E8F54A815B819E01411574
:101D40005105B1F7E901FB83EA8349915991C40F29
:101D5000D51FEC17FD0761F4808191810296840FF5
:101D6000951FE90199838883828193819B838A836C
:101D7000F0E0E0E012968D919C9113970097B9F5F1
:101D80002D913C911197CD010296820F931F2091C6
:101D90006A0530916B052817390739F6309751F5E8
:101DA00010926D0510926C05B0936B05A0936A05B7
:101DB000BCCFD383C28340815181840F951FC81744
:101DC000D90761F44E5F5F4F88819981480F591F91
:101DD000518340838A819B819383828321153105BE
:101DE00009F0B0CFF0936D05E0936C059ECFFD0137
:101DF000DC01C0CF13821282D7CFAEE0B0E0E3E0C7
:101E0000FFE00C94B5118C01FA0186E08C831A83F3
:101E1000098377FF02C060E070E8615071097E833A
:101E20006D83A901BF01CE0101960E94290F4D814A
:101E30005E8157FD0AC02F813885421753070CF485
:101E40009A01020F131FF80110822E96E4E00C9401
:101E5000D111ABE0B0E0EFE2FFE00C94A7117C0100
:101E60003B018A01FC0117821682838181FFC8C170
:101E7000CE0101965C01F7019381F30193FD8591F9
:101E800093FF81913F01882309F453C1853239F4CE
:101E900093FD859193FF81913F01853229F4B7012C
:101EA00090E00E941911E7CF912C212C312CFFE1F9
:101EB000F31538F08B3211F190F4803209F183324E
:101EC00029F137FC3CC020ED280F2A3050F536FEB2
:101ED00020C08AE0989E200D1124922E06C08D32DB
:101EE00091F0803371F7689430F8F30193FD859198
:101EF00093FF81913F018111DACF21C0689431F8BD
:101F0000689432F8F2CF689433F8EFCF689434F8DD
:101F1000ECCFEAE02E9E200D1124222E689435F895
:101F2000E4CF8E3229F436FC04C1689436F8DDCF54
:101F30008C3619F4689437F8D8CF8836B1F2982FD8
:101F40009F7D95549330E0F08336A1F18337C1F142
:101F5000833509F063C02801F2E04F0E511CF801EF
:101F6000C080D180692D70E036FC02C06FEF7FEF3A
:101F7000C6010E9403114C01689437F882010AC01F
:101F80000C5F1F4FFFE3F98388248394912C650134
:101F9000E89437F833FE2DC0522C8114910471F56A
:101FA000552009F468CFB70180E290E00E94191132
:101FB0005A94F6CFF801808189830E5F1F4FE4CFDA
:101FC0002801F2E04F0E511CF801C080D180692D2C
:101FD00070E036FC02C06FEF7FEFC6010E940E1169
:101FE0004C018201D5CFB70180E290E00E94191127
:101FF0002A942814190409F0B0F7CECFF60137FC63
:10200000859137FE81916F01B70190E00E9419110F
:1020100051105A94F1E08F1A9108BFCF843619F00D
:10202000893609F077C0F80137FE6BC06081718195
:10203000828193810C5F1F4FF32DFF763F2E97FF18
:1020400009C090958095709561957F4F8F4F9F4FF8
:10205000689437F82AE030E0A5010E944911C82EA3
:10206000CA188C2C432C36FE0CC0E89440F8C914D6
:1020700040F434FE05C032FC03C0F32DFE7E4F2E2B
:10208000892C44FE95C0FE01EC0DF11D808180334A
:1020900009F087C0242D297E422E842D8870582E69
:1020A00043FC95C040FE8FC09C2C821418F42C0C6D
:1020B000922C981844FE91C0B70180E390E00E94F2
:1020C000191142FE09C088E790E041FE02C088E590
:1020D00090E0B7010E941911C91408F48AC0CA948B
:1020E000D12C9FEFC91AD90ACA0CDB1CF6018291C8
:1020F0006F01B70190E00E941911AC14BD04B1F753
:102100004FCF60817181072E000C880B990B0E5FF9
:102110001F4F92CFD32CE894D4F82AE030E08537D3
:1021200039F1232D297FD22E8F3601F148F48835DD
:10213000A9F0F701868197812B96E2E10C94C311F7
:10214000803749F08837A9F7D4FE02C06894D2F8E6
:1021500020E130E00DC06894D4F8F6CF34FE03C01F
:10216000822F8660D82E20E132E002C028E030E0E5
:10217000F801D7FE0FC060817181828193810C5F6D
:102180001F4FA5010E944911C82ECA183D2CE89482
:1021900037F867CF6081718190E080E00E5F1F4F5C
:1021A000F0CF42FC02C0839478CF8394839475CFA0
:1021B000842D867809F471CFF6CFB70180E290E0E4
:1021C0000E94191183948214C0F3512C73CF522CA6
:1021D0005818821408F46ECFF8CF842D867809F44D
:1021E0007BCF8BE241FE80E247FC8DE2B70190E0BD
:1021F00071CFB70180E390E00E9419119A946CCFDF
:102200008FEF9FEF99CFFC01059061507040011056
:10221000D8F7809590958E0F9F1F0895FC0161500F
:10222000704001900110D8F7809590958E0F9F1FF8
:1022300008950F931F93CF93DF93182F092FEB016E
:102240008B8181FD09C01FEF0FEF812F902FDF9150
:10225000CF911F910F91089582FF14C02E813F816D
:102260008C819D81281739073CF4E881F981CF01E1
:1022700001969983888310838E819F8101969F8325
:102280008E83E3CFE885F985812F0995892BA1F30A
:10229000DACFFA01AA27283051F1203181F1E894F0
:1022A0006F936E7F6E5F7F4F8F4F9F4FAF4FB1E049
:1022B0003ED0B4E03CD0670F781F891F9A1FA11D44
:1022C000680F791F8A1F911DA11D6A0F711D811D45
:1022D000911DA11D20D009F468943F912AE0269F0A
:1022E00011243019305D3193DEF6CF010895462F69
:1022F0004770405D4193B3E00FD0C9F7F6CF462F4A
:102300004F70405D4A3318F0495D31FD40524193B2
:1023100002D0A9F7EACFB4E0A6959795879577956F
:102320006795BA95C9F700976105710508959B01F6
:10233000AC010A2E06945795479537952795BA957F
:10234000C9F7620F731F841F951FA01D08952F9258
:102350003F924F925F926F927F928F929F92AF9235
:10236000BF92CF92DF92EF92FF920F931F93CF9382
:10237000DF93CDB7DEB7CA1BDB0B0FB6F894DEBF19
:102380000FBECDBF09942A88398848885F846E843F
:102390007D848C849B84AA84B984C884DF80EE8089
:1023A000FD800C811B81AA81B981CE0FD11D0FB692
:1023B000F894DEBF0FBECDBFED010895F894FFCFB6
:1023C00000006E058000DC0251045804000000008B
:1023D00024018400B1007101E200C000D4000000BB
:1023E0000000350255084A029307490236023407B5
:1023F0000000000091015308E3010304EC037004A2
:1024000043040000000000008743015B00206D735F
:102410005D005D20000D0A00494E464F0053746573
:10242000707065724D6F746F7253696D3A3A6D6F6B
:102430007665546F282920696E76616C6964207313
:10244000706565643A20252E326620286D61783DDE
:10245000252E326629004552524F52005374657042
:102460007065724D6F746F7253696D3A3A6F6E5545
:1024700070646174655374617465282920756E6B8E
:102480006E6F776E20737461746549643D257500C5
:102490005741524E00444542554700556E6B6E6F92
:1024A000776E00706572696F64696300537465705C
:1024B0007065724D6F746F7253696D5B25735D202B
:1024C000743D256C75206D732073746174653D25B2
:1024D000732073746570733D256C642F256C6420C4
:1024E00068656164696E675F783130303D256C6482
:1024F000206D6F76696E673D25640053746570705A
:1025000065724D6F746F7253696D3A3A6F6E4578AC
:10251000697453746174652829202564202D3E2038
:10252000256400537465707065724D6F746F7253DB
:10253000696D3A3A6F6E456E746572537461746575
:102540002829202564202D3E2025642028737465C9
:1025500070733D256C64207461726765743D256CF1
:10256000642068656164696E673D256C642029009C
:10257000537465707065724D6F746F7253696D3A04
:102580003A68616E646C6549646C654576656E7425
:10259000282920526573657420696E2049646C6532
:1025A00000537465707065724D6F746F7253696D0E
:1025B0003A3A7570646174654D6F76696E67282963
:1025C000206D6F76652074696D6564206F75740089
:1025D000537465707065724D6F746F7253696D3AA4
:1025E0003A7369676E616C4661696C75726528291A
:1025F0002063616C6C656400537465707065724D26
:102600006F746F7253696D207265616368656420D1
:102610007461726765743A2073746570733D256CDC
:10262000642068656164696E673D256C640053745D
:1026300065707065724D6F746F7253696D3A3A6D63
:102640006F7665546F28292069676E6F7265643AEA
:10265000206D6F746F7220696E204572726F7220E8
:10266000737461746500537465707065724D6F7436
:102670006F7253696D3A3A6D6F7665546F282920F1
:1026800073746172743A2063757272656E743D255D
:102690006C64207461726765743D256C64206465A8
:1026A0006C74613D256C642073706565643D252EF6
:1026B00032662073746570732F732074696D656F53
:1026C00075743D256C75206D7300496E6974696180
:1026D0006C697A696E67202E2E2E005374657070B7
:1026E00065724D6F746F7253696D3A2062656769E8
:1026F0006E282920E286922049646C6500496E6943
:102700007469616C697A696E6720646F6E652E0A00
:0E271000004D6F76696E67004572726F720041
:107E0000112484B714BE81FFF0D085E080938100F7
:107E100082E08093C00088E18093C10086E0809377
:107E2000C20080E18093C4008EE0C9D0259A86E02C
:107E300020E33CEF91E0309385002093840096BBD3
:107E4000B09BFECF1D9AA8958150A9F7CC24DD24C4
:107E500088248394B5E0AB2EA1E19A2EF3E0BF2EE7
:107E6000A2D0813461F49FD0082FAFD0023811F036
:107E7000013811F484E001C083E08DD089C08234E0
:107E800011F484E103C0853419F485E0A6D080C0E4
:107E9000853579F488D0E82EFF2485D0082F10E0AE
:107EA000102F00270E291F29000F111F8ED06801E7
:107EB0006FC0863521F484E090D080E0DECF843638
:107EC00009F040C070D06FD0082F6DD080E0C81688
:107ED00080E7D80618F4F601B7BEE895C0E0D1E017
:107EE00062D089930C17E1F7F0E0CF16F0E7DF06D8
:107EF00018F0F601B7BEE89568D007B600FCFDCFD4
:107F0000A601A0E0B1E02C9130E011968C91119780
:107F100090E0982F8827822B932B1296FA010C0160
:107F200087BEE89511244E5F5F4FF1E0A038BF0790
:107F300051F7F601A7BEE89507B600FCFDCF97BE46
:107F4000E89526C08437B1F42ED02DD0F82E2BD052
:107F50003CD0F601EF2C8F010F5F1F4F84911BD097
:107F6000EA94F801C1F70894C11CD11CFA94CF0C13
:107F7000D11C0EC0853739F428D08EE10CD085E9AC
:107F80000AD08FE07ACF813511F488E018D01DD067
:107F900080E101D065CF982F8091C00085FFFCCF94
:107FA0009093C60008958091C00087FFFCCF809118
:107FB000C00084FD01C0A8958091C6000895E0E648
:107FC000F0E098E1908380830895EDDF803219F02E
:107FD00088E0F5DFFFCF84E1DECF1F93182FE3DFCA
:107FE0001150E9F7F2DF1F91089580E0E8DFEE27F6
:047FF000FF270994CA
:027FFE00040479
:00000001FF
