:100000000C948D000C94B5000C94B5000C94B500C4
:100010000C94B5000C94B5000C94B5000C94B5008C
:100020000C94B5000C94B5000C94B5000C94B5007C
:100030000C94B5000C94B5000C94B5000C94B5006C
:100040000C9417050C94B5000C9487050C9461056D
:100050000C94B5000C94B5000C94B5000C94B5004C
:100060000C94B5000C94B50020686F6D65643B205E
:1000700070617573696E67206265666F7265206E68
:10008000657874206D6F7665005B6379636C655D80
:10009000204D6F746F7220005B696E69745D20542F
:1000A0004D433232303920746573743A2072616E78
:1000B000646F6D206F75742D616E642D6261636B6A
:1000C000206379636C657300000000080002010082
:1000D0000003040700000000000000000000000012
:1000E000250028002B0000000000240027002A0023
:1000F00004040404040404040202020202020303CE
:1001000003030303010204081020408001020408D5
:100110001020010204081020CF0511241FBECFEFCC
:10012000D8E0DEBFCDBF11E0A0E0B1E0E4E6F3E14E
:1001300002C005900D92A233B107D9F722E0A2E3E5
:10014000B1E001C01D92AA35B207E1F710E0CDE899
:10015000D0E004C02197FE010E948508CC38D10769
:10016000C9F70E9479060C94B0090C94000090E045
:10017000FC01EC5FFE4F249180519F4FFC01849164
:10018000882399F090E0880F991FFC01EA51FF4FF6
:10019000A591B491FC01E452FF4F859194918FB7E2
:1001A000F894EC91E22BEC938FBF089590E0FC0162
:1001B000E853FF4F2491FC01EC5FFE4F3491FC01AA
:1001C000E051FF4FE491EE23C9F0222339F02330B0
:1001D00001F1A8F4213019F1223029F1F0E0EE0FFD
:1001E000FF1FE452FF4FA591B4918FB7F894EC91A3
:1001F000611126C030953E233C938FBF0895273070
:10020000A9F02830C9F0243049F7809180008F7D13
:1002100003C0809180008F7780938000DFCF84B50A
:100220008F7784BDDBCF84B58F7DFBCF8091B0000D
:100230008F778093B000D2CF8091B0008F7DF9CFBF
:100240003E2BDACF3FB7F89480915501909156013B
:10025000A0915701B091580126B5A89B05C02F3F2A
:1002600019F00196A11DB11D3FBFBA2FA92F982FDC
:100270008827BC01CD01620F711D811D911D42E0D7
:10028000660F771F881F991F4A95D1F70895AF927F
:10029000BF92CF92DF92EF92FF920F931F93CF9373
:1002A000DF936C017B018B01040F151FEB015E01D5
:1002B000AE18BF08C017D10759F06991D601ED916A
:1002C000FC910190F081E02DC6010995892B79F709
:1002D000C501DF91CF911F910F91FF90EF90DF90BB
:1002E000CF90BF90AF900895FC01538D448D252F82
:1002F00030E0842F90E0821B930B541710F0CF96C0
:10030000089501970895FC01918D828D981761F0F1
:10031000A28DAE0FBF2FB11D5D968C91928D9F5F08
:100320009F73928F90E008958FEF9FEF0895FC01E7
:10033000918D828D981731F0828DE80FF11D858D9A
:1003400090E008958FEF9FEF0895FC01918D228D2D
:10035000892F90E0805C9F4F821B91098F739927B2
:10036000089589E591E00E94A50121E0892B09F417
:1003700020E0822F089580E090E0892B29F00E94F0
:10038000B10181110C9400000895FC01A48DA80F07
:10039000B92FB11DA35ABF4F2C91848D90E00196C7
:1003A0008F739927848FA689B7892C93A089B189E7
:1003B0008C91837080648C93938D848D981306C088
:1003C0000288F389E02D80818F7D80830895EF92EC
:1003D000FF920F931F93CF93DF93EC0181E0888FFF
:1003E0009B8D8C8D98131AC0E889F989808185FFCF
:1003F00015C09FB7F894EE89FF896083E889F98971
:1004000080818370806480839FBF81E090E0DF9172
:10041000CF911F910F91FF90EF900895F62E0B8DC5
:1004200010E00F5F1F4F0F731127E02E8C8D8E1180
:100430000CC00FB607FCFACFE889F989808185FFE7
:10044000F5CFCE010E94C501F1CFEB8DEC0FFD2F52
:10045000F11DE35AFF4FF0829FB7F8940B8FEA89A2
:10046000FB8980818062CFCF0F931F93CF93DF935F
:100470008C01D0E0C0E0F801EC0FFD1F6491662311
:1004800041F089E591E00E94E701892B11F0219666
:10049000F2CFCE01DF91CF911F910F910895CF93AD
:1004A000DF93EC01888D8823B9F0AA89BB89E8899C
:1004B000F9898C9185FD03C0808186FD0DC00FB642
:1004C00007FCF7CF8C9185FFF2CF808185FFEDCFC0
:1004D000CE010E94C501E9CFDF91CF910895089523
:1004E000FC018185882341F08085882311F081E01B
:1004F000682787810C94D6000895623019F460E073
:100500000C94700261E0FCCF08958F929F92AF929D
:10051000BF92EF92FF920F931F93CF93DF93EC0163
:100520008C81882309F1EA806E15F1F049015A01A6
:10053000F62E8FEFE81659F0E881F9810084F185F5
:10054000E02D9A018401462F6E2DCE010995EB8294
:10055000FA82E881F9810680F781E02D9501840116
:100560004E2D6F2DCE010995DF91CF911F910F91E7
:10057000FF90EF90BF90AF909F908F900895FC01F7
:100580007281713059F020F07230D9F080E0089516
:100590006130E1F70E94850281E00895633031F017
:1005A000643031F0623091F760E0F4CF62E0F2CF76
:1005B000128613861486158616861786108A118A67
:1005C000F3CF643019F7F0CFDC0114967C911497C7
:1005D000772359F012967C9112977F3F31F0ED917D
:1005E000FC910484F585E02D09940895CF92DF9263
:1005F000EF92FF920F931F93CF93DF93FC018281C1
:10060000823009F446C04115510561057105D9F1E3
:10061000DB01CA0177FF07C088279927DC01841B0B
:10062000950BA60BB70B82879387A487B587868720
:100630009787A08BB18B80ED97E0A0E0B0E0828B34
:10064000938BA48BB58BC48DD58DD901C8018053F4
:10065000984FAF4FBF4F8C0F9D1FA11DB11D868BB3
:10066000978BA08FB18F77FD10C081E0868F61E0FE
:100670007901EF0186810E94D600A701980161E00F
:10068000CE010E94E40281E005C08FEF868F60E01A
:10069000EFCF80E0DF91CF911F910F91FF90EF900E
:1006A000DF90CF900895CF92DF92EF92FF92CF9399
:1006B000DF93613009F056C069017A01EC018A8547
:1006C0009B85AC85BD85892B8A2B8B2B61F4A7017B
:1006D000960162E0CE01DF91CF91FF90EF90DF9025
:1006E000CF900C94E4028E899F89A88DB98D281B28
:1006F000390B4A0B5B0BDA01C901B7FD33C061E06E
:100700008D810E94D6008A8D9B8D8230910538F0B4
:10071000880F991F880F991F05970197F1F760E0DF
:100720008D810E94D6008A859B85AC85BD85019709
:10073000A109B1098A879B87AC87BD87892B8A2B42
:100740008B2B29F28E899F89A88DB98D4A895B8967
:100750006C897D89840F951FA61FB71F8E8B9F8B79
:10076000A88FB98FDF91CF91FF90EF90DF90CF905E
:100770000895FC0101900020E9F73197AF01481B73
:10078000590BBC0189E591E00C944701CF92DF92AF
:10079000EF92FF92CF93DF93EC016A017B018D8191
:1007A0000E94B7008E810E94B70060E08D810E9498
:1007B000D60060E08E810E94D6008985882339F0BA
:1007C0008F810E94B70068858F810E94D60061E00A
:1007D000CE010E9470021A861B861C861D861E860C
:1007E0001F86188A198ACE8ADF8AE88EF98E81E000
:1007F0008E8F9FEF9B831A828C8361E0CE01DF9105
:10080000CF91FF90EF90DF90CF900C9470020C94FA
:1008100027092F923F924F925F926F927F928F9211
:100820009F92AF92BF92CF92DF92EF92FF920F937F
:100830001F93CF93DF93CDB7DEB7A5970FB6F8948C
:10084000DEBF0FBECDBF5C012A013B01FC01F78C6E
:100850008F2D90E09C01235B3E4F1901F90120810F
:100860008C01000F111F000F111FF801222309F442
:1008700069C0EF5BFE4F1082118212821382F10178
:100880001082825C9E4FFC0110820E94CA070E5C9F
:100890001E4F21EC36EC4DE250E00E942208605CD5
:1008A0007D4B804F9F4F460E571E681E791EF801E4
:1008B000408251826282738289E890E00E94340211
:1008C0002F2D30E050E040E019A28E010F5D1F4F48
:1008D0008AE0C82ED12CE12CF12CCA01B901A70164
:1008E00096010E945408605DF80162938F01211502
:1008F00031054105510589F7309719F0CF010E9464
:10090000B90388E690E00E9434028EE291E00E94F2
:10091000B903A5960FB6F894DEBF0FBECDBFDF9129
:10092000CF911F910F91FF90EF90DF90CF90BF90EC
:10093000AF909F908F907F906F905F904F903F907F
:100940002F900895EE5CFE4FC080D180E280F3804E
:10095000AB0192012C193D094E095F0957FDD9CF12
:10096000AC01425C5E4F4A01FA018081811142C0B4
:100970000E94CA0723E030E040E050E00E942208D5
:100980009B01AC012F5F3F4F4F4F5F4FA8ECB0E092
:100990000E9441086B017C010E94CA0722E030E0FE
:1009A00040E050E00E942208672B682B692B41F43D
:1009B000F094E094D094C094C11CD11CE11CF11CB3
:1009C00081E0F4018083F801EF5BFE4F808191812B
:1009D000A281B3818C0D9D1DAE1DBF1D80839183AF
:1009E000A283B38393018201B701A601C5010E94CE
:1009F000F6028FCFF801EF5BFE4F4081518162819B
:100A00007381411551056105710509F482CF709517
:100A10006095509541955F4F6F4F7F4F93018201D5
:100A2000C5010E94F60281E0F101808372CF1F921E
:100A30000F920FB60F9211242F933F938F939F9392
:100A4000AF93BF938091510190915201A0915301B6
:100A5000B09154013091500123E0230F2D3758F508
:100A60000196A11DB11D20935001809351019093D7
:100A70005201A0935301B09354018091550190917C
:100A80005601A0915701B09158010196A11DB11DC9
:100A90008093550190935601A0935701B09358014C
:100AA000BF91AF919F918F913F912F910F900FBE6A
:100AB0000F901F90189526E8230F0296A11DB11DD7
:100AC000D2CF1F920F920FB60F9211242F933F9304
:100AD0004F935F936F937F938F939F93AF93BF9346
:100AE000EF93FF9389E591E00E94C501FF91EF919B
:100AF000BF91AF919F918F917F916F915F914F9136
:100B00003F912F910F900FBE0F901F9018951F923D
:100B10000F920FB60F9211242F938F939F93EF9301
:100B2000FF93E0916901F0916A018081E0916F018A
:100B3000F091700182FD1BC09081809172018F5FE6
:100B40008F7320917301821741F0E0917201F0E000
:100B5000E75AFE4F958F80937201FF91EF919F911D
:100B60008F912F910F900FBE0F901F90189580813D
:100B7000F4CF9A01AB01DC0114966C9114976623B3
:100B800059F012966C9112976F3F31F0ED91FC91F4
:100B90000284F385E02D099408950C94B9050F9310
:100BA0001F93CF93DF93E9E5F1E01382128248EEC1
:100BB00053E060E070E044835583668377838EE082
:100BC00091E09183808385EC90E09587848784EC25
:100BD00090E09787868780EC90E0918B808B81EC0A
:100BE00090E0938B828B82EC90E0958B848B86ECEB
:100BF00090E0978B868B118E128E138E148EE6E307
:100C0000F2E09FEF928393831482C0E2D1E0D1831C
:100C1000C08382E0858385E0868318E0178381E0C6
:100C20008087818712861386148615861686178616
:100C3000108A118A428B538B648B758B168A178AA4
:100C4000108E118EA8EEB3E0B38FA28F22E330E0B6
:100C5000358F248F868F178EE6E1F2E0928393839F
:100C60001482D183C08303E0058306E006831783E3
:100C700080878187128613861486158616861786C6
:100C8000108A118A428B538B648B758B168A178A54
:100C9000108E118EB38FA28F358F248F868F178E73
:100CA000E6EFF1E0928393831482D183C08394E0D2
:100CB000958397E0968317838087818712861386B2
:100CC0001486158616861786108A118A428B538BD6
:100CD000648B758B168A178A108E118EB38FA28F34
:100CE000358F248F868F178EDF91CF911F910F91B3
:100CF0000895789484B5826084BD84B5816084BD94
:100D000085B5826085BD85B5816085BD80916E00A9
:100D1000816080936E0010928100809181008260DA
:100D20008093810080918100816080938100809117
:100D300080008160809380008091B1008460809306
:100D4000B1008091B00081608093B00080917A0002
:100D5000846080937A0080917A00826080937A0028
:100D600080917A00816080937A0080917A00806817
:100D700080937A001092C100E0916901F0916A01BC
:100D800012E01083E0916501F09166011082E0911C
:100D90006701F091680180E1808310927101E09118
:100DA0006D01F0916E0186E08083E0916B01F0911E
:100DB0006C01808180618083E0916B01F0916C0116
:100DC000808188608083E0916B01F0916C0180816B
:100DD00080688083E0916B01F0916C0180818F7D50
:100DE000808388E990E00E9434028EE291E00E94C4
:100DF000B9030E9422016B017C0110925502C4E6E6
:100E0000D0E0D0935302C0935202BC01A60186E306
:100E100092E00E94C60381E080933502D0933302B2
:100E2000C0933202B701A60186E192E00E94C60398
:100E300010931502D0931302C0931202B701A601BA
:100E400086EF91E00E94C60380E480937C0080914D
:100E50007A00806480937A0080917A0086FDFCCFCE
:100E60006091780070917900072E000C880B990B27
:100E7000611571058105910511F00E941908C0E006
:100E8000D0E00E9422016B017C01BC01A60186E337
:100E900092E00E94B905B701A60186E192E00E94A6
:100EA000B905B701A60186EF91E00E94B9058091CE
:100EB0003802811106C0B701A60186E392E00E94C4
:100EC000090480911802811106C0B701A60186E1CC
:100ED00092E00E9409048091F801811106C0B701D7
:100EE000A60186EF91E00E940904209751F20E942A
:100EF000B101882331F20E940000C3CF8F929F92EC
:100F0000AF92BF92CF92DF92EF92FF92CF93DF9397
:100F1000EC01688179818A819B8161157105810568
:100F2000910521F464E279ED8BE597E02DE133EF53
:100F300041E050E00E94220849015A019B01AC01A6
:100F4000A7EAB1E40E9441086B017C01ACEEB4EF6A
:100F5000A50194010E944F08C60ED71EE81EF91E77
:100F6000F7FE06C081E0C81AD108E10880E8F80A57
:100F7000C882D982EA82FB82C701B6019F77DF91DE
:100F8000CF91FF90EF90DF90CF90BF90AF909F9068
:100F90008F9008958F929F92AF92BF92CF92DF92DF
:100FA000EF92FF9260910001709101018091020126
:100FB00090910301611571058105910521F464E2A9
:100FC00079ED8BE597E02DE133EF41E050E00E94B1
:100FD000220849015A019B01AC01A7EAB1E40E9431
:100FE00041086B017C01ACEEB4EFA50194010E94B5
:100FF0004F08C60ED71EE81EF91EF7FE06C081E098
:10100000C81AD108E10880E8F80AC0920001D0921D
:101010000101E0920201F0920301C701B6019F773E
:10102000FF90EF90DF90CF90BF90AF909F908F9008
:1010300008956093000170930101809302019093E1
:1010400003010895052E97FB1EF400940E943908B1
:1010500057FD07D00E94540807FC03D04EF40C94AF
:10106000390850954095309521953F4F4F4F5F4F30
:10107000089590958095709561957F4F8F4F9F4F04
:1010800008950E947608A59F900DB49F900DA49F8F
:10109000800D911D11240895B7FF0C9441080E9402
:1010A0004108821B930B0895A1E21A2EAA1BBB1BB9
:1010B000FD010DC0AA1FBB1FEE1FFF1FA217B30724
:1010C000E407F50720F0A21BB30BE40BF50B661F3A
:1010D000771F881F991F1A9469F7609570958095FE
:1010E00090959B01AC01BD01CF010895A29FB00175
:1010F000B39FC001A39F700D811D1124911DB29F4C
:10110000700D811D1124911D0895EE0FFF1F059094
:10111000F491E02D09940F931F93CF93DF938230C6
:10112000910510F482E090E0E0915802F0915902AC
:1011300030E020E0B0E0A0E0309799F421153105CF
:1011400009F44AC0281B390B24303105D8F58A81AF
:101150009B816115710589F1FB0193838283FE01F7
:1011600011C0408151810281138148175907E0F075
:101170004817590799F4109761F012960C9312973B
:1011800013961C933296CF01DF91CF911F910F914F
:1011900008950093580210935902F4CF2115310598
:1011A00051F04217530738F0A901DB019A01BD0144
:1011B000DF01F801C1CFEF01F9CF9093590280937D
:1011C0005802CDCFFE01E20FF31F8193919322507D
:1011D000310939832883D7CF2091560230915702A5
:1011E000232B41F4209106013091070130935702DF
:1011F00020935602209104013091050121153105FB
:1012000041F42DB73EB74091080150910901241BCC
:10121000350BE0915602F0915702E217F307A0F464
:101220002E1B3F0B2817390778F0AC014E5F5F4F3C
:101230002417350748F04E0F5F1F50935702409315
:101240005602819391939FCFF0E0E0E09CCFCF9343
:10125000DF930097E9F0FC01329713821282A0918C
:101260005802B0915902ED0130E020E01097A1F44E
:1012700020813181820F931F2091560230915702B5
:101280002817390709F061C0F0935702E09356021E
:10129000DF91CF910895EA01CE17DF07E8F54A8183
:1012A0005B819E0141155105B1F7E901FB83EA839A
:1012B00049915991C40FD51FEC17FD0761F4808146
:1012C00091810296840F951FE90199838883828119
:1012D00093819B838A83F0E0E0E012968D919C914C
:1012E00013970097B9F52D913C911197CD01029676
:1012F000820F931F20915602309157022817390709
:1013000039F6309751F51092590210925802B09365
:101310005702A0935602BCCFD383C2834081518130
:10132000840F951FC817D90761F44E5F5F4F8881FE
:101330009981480F591F518340838A819B819383F0
:1013400082832115310509F0B0CFF0935902E09363
:1013500058029ECFFD01DC01C0CF13821282D7CF8D
:04136000F894FFCF2F
:101364000100000000005A02800000000000E701B4
:10137400470174014F02A501830197010000000099
:101384006F020704CD057D0284025303BF020D0AD8
:02139400000057
:00000001FF
